{
  "_format": "hh-sol-artifact-1",
  "contractName": "PioneeringVirusNFT",
  "sourceName": "contracts/PioneeringVirusNFT.sol",
  "abi": [
    {
      "inputs": [
        {
          "internalType": "string",
          "name": "_name",
          "type": "string"
        },
        {
          "internalType": "string",
          "name": "_symbol",
          "type": "string"
        },
        {
          "internalType": "uint256",
          "name": "_maxSupply",
          "type": "uint256"
        },
        {
          "internalType": "string",
          "name": "_initBaseURI",
          "type": "string"
        }
      ],
      "stateMutability": "nonpayable",
      "type": "constructor"
    },
    {
      "anonymous": false,
      "inputs": [
        {
          "indexed": true,
          "internalType": "address",
          "name": "owner",
          "type": "address"
        },
        {
          "indexed": true,
          "internalType": "address",
          "name": "approved",
          "type": "address"
        },
        {
          "indexed": true,
          "internalType": "uint256",
          "name": "tokenId",
          "type": "uint256"
        }
      ],
      "name": "Approval",
      "type": "event"
    },
    {
      "anonymous": false,
      "inputs": [
        {
          "indexed": true,
          "internalType": "address",
          "name": "owner",
          "type": "address"
        },
        {
          "indexed": true,
          "internalType": "address",
          "name": "operator",
          "type": "address"
        },
        {
          "indexed": false,
          "internalType": "bool",
          "name": "approved",
          "type": "bool"
        }
      ],
      "name": "ApprovalForAll",
      "type": "event"
    },
    {
      "anonymous": false,
      "inputs": [
        {
          "indexed": true,
          "internalType": "address",
          "name": "previousOwner",
          "type": "address"
        },
        {
          "indexed": true,
          "internalType": "address",
          "name": "newOwner",
          "type": "address"
        }
      ],
      "name": "OwnershipTransferred",
      "type": "event"
    },
    {
      "anonymous": false,
      "inputs": [
        {
          "indexed": true,
          "internalType": "address",
          "name": "from",
          "type": "address"
        },
        {
          "indexed": true,
          "internalType": "address",
          "name": "to",
          "type": "address"
        },
        {
          "indexed": true,
          "internalType": "uint256",
          "name": "tokenId",
          "type": "uint256"
        }
      ],
      "name": "Transfer",
      "type": "event"
    },
    {
      "inputs": [
        {
          "internalType": "address",
          "name": "to",
          "type": "address"
        },
        {
          "internalType": "uint256",
          "name": "tokenId",
          "type": "uint256"
        }
      ],
      "name": "approve",
      "outputs": [],
      "stateMutability": "nonpayable",
      "type": "function"
    },
    {
      "inputs": [
        {
          "internalType": "address",
          "name": "owner",
          "type": "address"
        }
      ],
      "name": "balanceOf",
      "outputs": [
        {
          "internalType": "uint256",
          "name": "",
          "type": "uint256"
        }
      ],
      "stateMutability": "view",
      "type": "function"
    },
    {
      "inputs": [
        {
          "internalType": "uint256",
          "name": "tokenId",
          "type": "uint256"
        }
      ],
      "name": "getApproved",
      "outputs": [
        {
          "internalType": "address",
          "name": "",
          "type": "address"
        }
      ],
      "stateMutability": "view",
      "type": "function"
    },
    {
      "inputs": [],
      "name": "getTotalSupply",
      "outputs": [
        {
          "internalType": "uint256",
          "name": "",
          "type": "uint256"
        }
      ],
      "stateMutability": "view",
      "type": "function"
    },
    {
      "inputs": [],
      "name": "hasMinted",
      "outputs": [
        {
          "internalType": "bool",
          "name": "",
          "type": "bool"
        }
      ],
      "stateMutability": "view",
      "type": "function"
    },
    {
      "inputs": [
        {
          "internalType": "address",
          "name": "owner",
          "type": "address"
        },
        {
          "internalType": "address",
          "name": "operator",
          "type": "address"
        }
      ],
      "name": "isApprovedForAll",
      "outputs": [
        {
          "internalType": "bool",
          "name": "",
          "type": "bool"
        }
      ],
      "stateMutability": "view",
      "type": "function"
    },
    {
      "inputs": [],
      "name": "isWhitelisted",
      "outputs": [
        {
          "internalType": "bool",
          "name": "",
          "type": "bool"
        }
      ],
      "stateMutability": "view",
      "type": "function"
    },
    {
      "inputs": [],
      "name": "mint",
      "outputs": [],
      "stateMutability": "nonpayable",
      "type": "function"
    },
    {
      "inputs": [],
      "name": "name",
      "outputs": [
        {
          "internalType": "string",
          "name": "",
          "type": "string"
        }
      ],
      "stateMutability": "view",
      "type": "function"
    },
    {
      "inputs": [],
      "name": "owner",
      "outputs": [
        {
          "internalType": "address",
          "name": "",
          "type": "address"
        }
      ],
      "stateMutability": "view",
      "type": "function"
    },
    {
      "inputs": [
        {
          "internalType": "uint256",
          "name": "tokenId",
          "type": "uint256"
        }
      ],
      "name": "ownerOf",
      "outputs": [
        {
          "internalType": "address",
          "name": "",
          "type": "address"
        }
      ],
      "stateMutability": "view",
      "type": "function"
    },
    {
      "inputs": [],
      "name": "renounceOwnership",
      "outputs": [],
      "stateMutability": "nonpayable",
      "type": "function"
    },
    {
      "inputs": [
        {
          "internalType": "address",
          "name": "from",
          "type": "address"
        },
        {
          "internalType": "address",
          "name": "to",
          "type": "address"
        },
        {
          "internalType": "uint256",
          "name": "tokenId",
          "type": "uint256"
        }
      ],
      "name": "safeTransferFrom",
      "outputs": [],
      "stateMutability": "nonpayable",
      "type": "function"
    },
    {
      "inputs": [
        {
          "internalType": "address",
          "name": "from",
          "type": "address"
        },
        {
          "internalType": "address",
          "name": "to",
          "type": "address"
        },
        {
          "internalType": "uint256",
          "name": "tokenId",
          "type": "uint256"
        },
        {
          "internalType": "bytes",
          "name": "_data",
          "type": "bytes"
        }
      ],
      "name": "safeTransferFrom",
      "outputs": [],
      "stateMutability": "nonpayable",
      "type": "function"
    },
    {
      "inputs": [
        {
          "internalType": "address",
          "name": "operator",
          "type": "address"
        },
        {
          "internalType": "bool",
          "name": "approved",
          "type": "bool"
        }
      ],
      "name": "setApprovalForAll",
      "outputs": [],
      "stateMutability": "nonpayable",
      "type": "function"
    },
    {
      "inputs": [
        {
          "internalType": "string",
          "name": "_newBaseURI",
          "type": "string"
        }
      ],
      "name": "setBaseURI",
      "outputs": [],
      "stateMutability": "nonpayable",
      "type": "function"
    },
    {
      "inputs": [],
      "name": "setPaused",
      "outputs": [],
      "stateMutability": "nonpayable",
      "type": "function"
    },
    {
      "inputs": [],
      "name": "setUnpaused",
      "outputs": [],
      "stateMutability": "nonpayable",
      "type": "function"
    },
    {
      "inputs": [
        {
          "internalType": "address",
          "name": "_address",
          "type": "address"
        }
      ],
      "name": "setWhitelisted",
      "outputs": [],
      "stateMutability": "nonpayable",
      "type": "function"
    },
    {
      "inputs": [
        {
          "internalType": "bytes4",
          "name": "interfaceId",
          "type": "bytes4"
        }
      ],
      "name": "supportsInterface",
      "outputs": [
        {
          "internalType": "bool",
          "name": "",
          "type": "bool"
        }
      ],
      "stateMutability": "view",
      "type": "function"
    },
    {
      "inputs": [],
      "name": "symbol",
      "outputs": [
        {
          "internalType": "string",
          "name": "",
          "type": "string"
        }
      ],
      "stateMutability": "view",
      "type": "function"
    },
    {
      "inputs": [
        {
          "internalType": "uint256",
          "name": "tokenId",
          "type": "uint256"
        }
      ],
      "name": "tokenURI",
      "outputs": [
        {
          "internalType": "string",
          "name": "",
          "type": "string"
        }
      ],
      "stateMutability": "view",
      "type": "function"
    },
    {
      "inputs": [
        {
          "internalType": "address",
          "name": "from",
          "type": "address"
        },
        {
          "internalType": "address",
          "name": "to",
          "type": "address"
        },
        {
          "internalType": "uint256",
          "name": "tokenId",
          "type": "uint256"
        }
      ],
      "name": "transferFrom",
      "outputs": [],
      "stateMutability": "nonpayable",
      "type": "function"
    },
    {
      "inputs": [
        {
          "internalType": "address",
          "name": "newOwner",
          "type": "address"
        }
      ],
      "name": "transferOwnership",
      "outputs": [],
      "stateMutability": "nonpayable",
      "type": "function"
    },
    {
      "inputs": [
        {
          "internalType": "address",
          "name": "",
          "type": "address"
        }
      ],
      "name": "whitelisted",
      "outputs": [
        {
          "internalType": "bool",
          "name": "",
          "type": "bool"
        }
      ],
      "stateMutability": "view",
      "type": "function"
    }
  ],
  "bytecode": "0x60806040526000600a60006101000a81548160ff0219169083151502179055503480156200002c57600080fd5b50604051620039d4380380620039d48339818101604052810190620000529190620004a1565b838381600090805190602001906200006c92919062000368565b5080600190805190602001906200008592919062000368565b505050620000a86200009c620000db60201b60201c565b620000e360201b60201c565b620000b981620001a960201b60201c565b81600981905550620000d1336200025460201b60201c565b505050506200076f565b600033905090565b6000600660009054906101000a900473ffffffffffffffffffffffffffffffffffffffff16905081600660006101000a81548173ffffffffffffffffffffffffffffffffffffffff021916908373ffffffffffffffffffffffffffffffffffffffff1602179055508173ffffffffffffffffffffffffffffffffffffffff168173ffffffffffffffffffffffffffffffffffffffff167f8be0079c531659141344cd1fd0a4f28419497f9722a3daafe3b4186f6b6457e060405160405180910390a35050565b620001b9620000db60201b60201c565b73ffffffffffffffffffffffffffffffffffffffff16620001df6200033e60201b60201c565b73ffffffffffffffffffffffffffffffffffffffff161462000238576040517f08c379a00000000000000000000000000000000000000000000000000000000081526004016200022f906200057f565b60405180910390fd5b80600890805190602001906200025092919062000368565b5050565b62000264620000db60201b60201c565b73ffffffffffffffffffffffffffffffffffffffff166200028a6200033e60201b60201c565b73ffffffffffffffffffffffffffffffffffffffff1614620002e3576040517f08c379a0000000000000000000000000000000000000000000000000000000008152600401620002da906200057f565b60405180910390fd5b6001600b60008373ffffffffffffffffffffffffffffffffffffffff1673ffffffffffffffffffffffffffffffffffffffff16815260200190815260200160002060006101000a81548160ff02191690831515021790555050565b6000600660009054906101000a900473ffffffffffffffffffffffffffffffffffffffff16905090565b828054620003769062000651565b90600052602060002090601f0160209004810192826200039a5760008555620003e6565b82601f10620003b557805160ff1916838001178555620003e6565b82800160010185558215620003e6579182015b82811115620003e5578251825591602001919060010190620003c8565b5b509050620003f59190620003f9565b5090565b5b8082111562000414576000816000905550600101620003fa565b5090565b60006200042f6200042984620005ca565b620005a1565b9050828152602081018484840111156200044857600080fd5b620004558482856200061b565b509392505050565b600082601f8301126200046f57600080fd5b81516200048184826020860162000418565b91505092915050565b6000815190506200049b8162000755565b92915050565b60008060008060808587031215620004b857600080fd5b600085015167ffffffffffffffff811115620004d357600080fd5b620004e1878288016200045d565b945050602085015167ffffffffffffffff811115620004ff57600080fd5b6200050d878288016200045d565b935050604062000520878288016200048a565b925050606085015167ffffffffffffffff8111156200053e57600080fd5b6200054c878288016200045d565b91505092959194509250565b60006200056760208362000600565b915062000574826200072c565b602082019050919050565b600060208201905081810360008301526200059a8162000558565b9050919050565b6000620005ad620005c0565b9050620005bb828262000687565b919050565b6000604051905090565b600067ffffffffffffffff821115620005e857620005e7620006ec565b5b620005f3826200071b565b9050602081019050919050565b600082825260208201905092915050565b6000819050919050565b60005b838110156200063b5780820151818401526020810190506200061e565b838111156200064b576000848401525b50505050565b600060028204905060018216806200066a57607f821691505b60208210811415620006815762000680620006bd565b5b50919050565b62000692826200071b565b810181811067ffffffffffffffff82111715620006b457620006b3620006ec565b5b80604052505050565b7f4e487b7100000000000000000000000000000000000000000000000000000000600052602260045260246000fd5b7f4e487b7100000000000000000000000000000000000000000000000000000000600052604160045260246000fd5b6000601f19601f8301169050919050565b7f4f776e61626c653a2063616c6c6572206973206e6f7420746865206f776e6572600082015250565b620007608162000611565b81146200076c57600080fd5b50565b613255806200077f6000396000f3fe608060405234801561001057600080fd5b50600436106101735760003560e01c8063611b4095116100de578063a22cb46511610097578063c87b56dd11610071578063c87b56dd146103d8578063d936547e14610408578063e985e9c514610438578063f2fde38b1461046857610173565b8063a22cb46514610382578063b88d4fde1461039e578063c4e41b22146103ba57610173565b8063611b4095146102be5780636352211e146102dc57806370a082311461030c578063715018a61461033c5780638da5cb5b1461034657806395d89b411461036457610173565b806323b872dd1161013057806323b872dd1461023a57806337a66d85146102565780633a2f3557146102605780633c89edce1461027c57806342842e0e1461028657806355f804b3146102a257610173565b806301ffc9a71461017857806306fdde03146101a8578063081812fc146101c6578063095ea7b3146101f65780631249c58b1461021257806322ef69751461021c575b600080fd5b610192600480360381019061018d9190612290565b610484565b60405161019f9190612705565b60405180910390f35b6101b0610566565b6040516101bd9190612720565b60405180910390f35b6101e060048036038101906101db9190612323565b6105f8565b6040516101ed919061269e565b60405180910390f35b610210600480360381019061020b9190612254565b61067d565b005b61021a610795565b005b6102246107ec565b6040516102319190612705565b60405180910390f35b610254600480360381019061024f919061214e565b61080c565b005b61025e61086c565b005b61027a600480360381019061027591906120e9565b610905565b005b6102846109dc565b005b6102a0600480360381019061029b919061214e565b610a75565b005b6102bc60048036038101906102b791906122e2565b610a95565b005b6102c6610b2b565b6040516102d39190612705565b60405180910390f35b6102f660048036038101906102f19190612323565b610b8d565b604051610303919061269e565b60405180910390f35b610326600480360381019061032191906120e9565b610c3f565b6040516103339190612942565b60405180910390f35b610344610cf7565b005b61034e610d7f565b60405161035b919061269e565b60405180910390f35b61036c610da9565b6040516103799190612720565b60405180910390f35b61039c60048036038101906103979190612218565b610e3b565b005b6103b860048036038101906103b3919061219d565b610e51565b005b6103c2610eb3565b6040516103cf9190612942565b60405180910390f35b6103f260048036038101906103ed9190612323565b610ec4565b6040516103ff9190612720565b60405180910390f35b610422600480360381019061041d91906120e9565b610f6c565b60405161042f9190612705565b60405180910390f35b610452600480360381019061044d9190612112565b610f8c565b60405161045f9190612705565b60405180910390f35b610482600480360381019061047d91906120e9565b611020565b005b60007f80ac58cd000000000000000000000000000000000000000000000000000000007bffffffffffffffffffffffffffffffffffffffffffffffffffffffff1916827bffffffffffffffffffffffffffffffffffffffffffffffffffffffff1916148061054f57507f5b5e139f000000000000000000000000000000000000000000000000000000007bffffffffffffffffffffffffffffffffffffffffffffffffffffffff1916827bffffffffffffffffffffffffffffffffffffffffffffffffffffffff1916145b8061055f575061055e82611118565b5b9050919050565b60606000805461057590612b98565b80601f01602080910402602001604051908101604052809291908181526020018280546105a190612b98565b80156105ee5780601f106105c3576101008083540402835291602001916105ee565b820191906000526020600020905b8154815290600101906020018083116105d157829003601f168201915b5050505050905090565b600061060382611182565b610642576040517f08c379a0000000000000000000000000000000000000000000000000000000008152600401610639906128a2565b60405180910390fd5b6004600083815260200190815260200160002060009054906101000a900473ffffffffffffffffffffffffffffffffffffffff169050919050565b600061068882610b8d565b90508073ffffffffffffffffffffffffffffffffffffffff168373ffffffffffffffffffffffffffffffffffffffff1614156106f9576040517f08c379a00000000000000000000000000000000000000000000000000000000081526004016106f090612902565b60405180910390fd5b8073ffffffffffffffffffffffffffffffffffffffff166107186111ee565b73ffffffffffffffffffffffffffffffffffffffff1614806107475750610746816107416111ee565b610f8c565b5b610786576040517f08c379a000000000000000000000000000000000000000000000000000000000815260040161077d90612822565b60405180910390fd5b61079083836111f6565b505050565b600161079f6112af565b106107a957600080fd5b60016107b560076112bf565b6107bf9190612a27565b60095410156107cd57600080fd5b6107d760076112cd565b6107ea336107e560076112bf565b6112e3565b565b600060016107f86112af565b14610804576000610807565b60015b905090565b61081d6108176111ee565b82611301565b61085c576040517f08c379a000000000000000000000000000000000000000000000000000000000815260040161085390612922565b60405180910390fd5b6108678383836113df565b505050565b6108746111ee565b73ffffffffffffffffffffffffffffffffffffffff16610892610d7f565b73ffffffffffffffffffffffffffffffffffffffff16146108e8576040517f08c379a00000000000000000000000000000000000000000000000000000000081526004016108df906128c2565b60405180910390fd5b6001600a60006101000a81548160ff021916908315150217905550565b61090d6111ee565b73ffffffffffffffffffffffffffffffffffffffff1661092b610d7f565b73ffffffffffffffffffffffffffffffffffffffff1614610981576040517f08c379a0000000000000000000000000000000000000000000000000000000008152600401610978906128c2565b60405180910390fd5b6001600b60008373ffffffffffffffffffffffffffffffffffffffff1673ffffffffffffffffffffffffffffffffffffffff16815260200190815260200160002060006101000a81548160ff02191690831515021790555050565b6109e46111ee565b73ffffffffffffffffffffffffffffffffffffffff16610a02610d7f565b73ffffffffffffffffffffffffffffffffffffffff1614610a58576040517f08c379a0000000000000000000000000000000000000000000000000000000008152600401610a4f906128c2565b60405180910390fd5b6000600a60006101000a81548160ff021916908315150217905550565b610a9083838360405180602001604052806000815250610e51565b505050565b610a9d6111ee565b73ffffffffffffffffffffffffffffffffffffffff16610abb610d7f565b73ffffffffffffffffffffffffffffffffffffffff1614610b11576040517f08c379a0000000000000000000000000000000000000000000000000000000008152600401610b08906128c2565b60405180910390fd5b8060089080519060200190610b27929190611f0d565b5050565b6000600b60003373ffffffffffffffffffffffffffffffffffffffff1673ffffffffffffffffffffffffffffffffffffffff16815260200190815260200160002060009054906101000a900460ff16610b85576000610b88565b60015b905090565b6000806002600084815260200190815260200160002060009054906101000a900473ffffffffffffffffffffffffffffffffffffffff169050600073ffffffffffffffffffffffffffffffffffffffff168173ffffffffffffffffffffffffffffffffffffffff161415610c36576040517f08c379a0000000000000000000000000000000000000000000000000000000008152600401610c2d90612862565b60405180910390fd5b80915050919050565b60008073ffffffffffffffffffffffffffffffffffffffff168273ffffffffffffffffffffffffffffffffffffffff161415610cb0576040517f08c379a0000000000000000000000000000000000000000000000000000000008152600401610ca790612842565b60405180910390fd5b600360008373ffffffffffffffffffffffffffffffffffffffff1673ffffffffffffffffffffffffffffffffffffffff168152602001908152602001600020549050919050565b610cff6111ee565b73ffffffffffffffffffffffffffffffffffffffff16610d1d610d7f565b73ffffffffffffffffffffffffffffffffffffffff1614610d73576040517f08c379a0000000000000000000000000000000000000000000000000000000008152600401610d6a906128c2565b60405180910390fd5b610d7d6000611646565b565b6000600660009054906101000a900473ffffffffffffffffffffffffffffffffffffffff16905090565b606060018054610db890612b98565b80601f0160208091040260200160405190810160405280929190818152602001828054610de490612b98565b8015610e315780601f10610e0657610100808354040283529160200191610e31565b820191906000526020600020905b815481529060010190602001808311610e1457829003601f168201915b5050505050905090565b610e4d610e466111ee565b838361170c565b5050565b610e62610e5c6111ee565b83611301565b610ea1576040517f08c379a0000000000000000000000000000000000000000000000000000000008152600401610e9890612922565b60405180910390fd5b610ead84848484611879565b50505050565b6000610ebf60076112bf565b905090565b6060610ecf82611182565b610f0e576040517f08c379a0000000000000000000000000000000000000000000000000000000008152600401610f05906128e2565b60405180910390fd5b6000610f186118d5565b5111610f335760405180602001604052806000815250610f65565b610f3b6118d5565b610f4483611967565b604051602001610f5592919061266f565b6040516020818303038152906040525b9050919050565b600b6020528060005260406000206000915054906101000a900460ff1681565b6000600560008473ffffffffffffffffffffffffffffffffffffffff1673ffffffffffffffffffffffffffffffffffffffff16815260200190815260200160002060008373ffffffffffffffffffffffffffffffffffffffff1673ffffffffffffffffffffffffffffffffffffffff16815260200190815260200160002060009054906101000a900460ff16905092915050565b6110286111ee565b73ffffffffffffffffffffffffffffffffffffffff16611046610d7f565b73ffffffffffffffffffffffffffffffffffffffff161461109c576040517f08c379a0000000000000000000000000000000000000000000000000000000008152600401611093906128c2565b60405180910390fd5b600073ffffffffffffffffffffffffffffffffffffffff168173ffffffffffffffffffffffffffffffffffffffff16141561110c576040517f08c379a000000000000000000000000000000000000000000000000000000000815260040161110390612762565b60405180910390fd5b61111581611646565b50565b60007f01ffc9a7000000000000000000000000000000000000000000000000000000007bffffffffffffffffffffffffffffffffffffffffffffffffffffffff1916827bffffffffffffffffffffffffffffffffffffffffffffffffffffffff1916149050919050565b60008073ffffffffffffffffffffffffffffffffffffffff166002600084815260200190815260200160002060009054906101000a900473ffffffffffffffffffffffffffffffffffffffff1673ffffffffffffffffffffffffffffffffffffffff1614159050919050565b600033905090565b816004600083815260200190815260200160002060006101000a81548173ffffffffffffffffffffffffffffffffffffffff021916908373ffffffffffffffffffffffffffffffffffffffff160217905550808273ffffffffffffffffffffffffffffffffffffffff1661126983610b8d565b73ffffffffffffffffffffffffffffffffffffffff167f8c5be1e5ebec7d5bd14f71427d1e84f3dd0314c0f7b2291e5b200ac8c7c3b92560405160405180910390a45050565b60006112ba33610c3f565b905090565b600081600001549050919050565b6001816000016000828254019250508190555050565b6112fd828260405180602001604052806000815250611b14565b5050565b600061130c82611182565b61134b576040517f08c379a000000000000000000000000000000000000000000000000000000000815260040161134290612802565b60405180910390fd5b600061135683610b8d565b90508073ffffffffffffffffffffffffffffffffffffffff168473ffffffffffffffffffffffffffffffffffffffff1614806113c557508373ffffffffffffffffffffffffffffffffffffffff166113ad846105f8565b73ffffffffffffffffffffffffffffffffffffffff16145b806113d657506113d58185610f8c565b5b91505092915050565b8273ffffffffffffffffffffffffffffffffffffffff166113ff82610b8d565b73ffffffffffffffffffffffffffffffffffffffff1614611455576040517f08c379a000000000000000000000000000000000000000000000000000000000815260040161144c90612782565b60405180910390fd5b600073ffffffffffffffffffffffffffffffffffffffff168273ffffffffffffffffffffffffffffffffffffffff1614156114c5576040517f08c379a00000000000000000000000000000000000000000000000000000000081526004016114bc906127c2565b60405180910390fd5b6114d0838383611b6f565b6114db6000826111f6565b6001600360008573ffffffffffffffffffffffffffffffffffffffff1673ffffffffffffffffffffffffffffffffffffffff168152602001908152602001600020600082825461152b9190612aae565b925050819055506001600360008473ffffffffffffffffffffffffffffffffffffffff1673ffffffffffffffffffffffffffffffffffffffff16815260200190815260200160002060008282546115829190612a27565b92505081905550816002600083815260200190815260200160002060006101000a81548173ffffffffffffffffffffffffffffffffffffffff021916908373ffffffffffffffffffffffffffffffffffffffff160217905550808273ffffffffffffffffffffffffffffffffffffffff168473ffffffffffffffffffffffffffffffffffffffff167fddf252ad1be2c89b69c2b068fc378daa952ba7f163c4a11628f55a4df523b3ef60405160405180910390a4611641838383611b74565b505050565b6000600660009054906101000a900473ffffffffffffffffffffffffffffffffffffffff16905081600660006101000a81548173ffffffffffffffffffffffffffffffffffffffff021916908373ffffffffffffffffffffffffffffffffffffffff1602179055508173ffffffffffffffffffffffffffffffffffffffff168173ffffffffffffffffffffffffffffffffffffffff167f8be0079c531659141344cd1fd0a4f28419497f9722a3daafe3b4186f6b6457e060405160405180910390a35050565b8173ffffffffffffffffffffffffffffffffffffffff168373ffffffffffffffffffffffffffffffffffffffff16141561177b576040517f08c379a0000000000000000000000000000000000000000000000000000000008152600401611772906127e2565b60405180910390fd5b80600560008573ffffffffffffffffffffffffffffffffffffffff1673ffffffffffffffffffffffffffffffffffffffff16815260200190815260200160002060008473ffffffffffffffffffffffffffffffffffffffff1673ffffffffffffffffffffffffffffffffffffffff16815260200190815260200160002060006101000a81548160ff0219169083151502179055508173ffffffffffffffffffffffffffffffffffffffff168373ffffffffffffffffffffffffffffffffffffffff167f17307eab39ab6107e8899845ad3d59bd9653f200f220920489ca2b5937696c318360405161186c9190612705565b60405180910390a3505050565b6118848484846113df565b61189084848484611b79565b6118cf576040517f08c379a00000000000000000000000000000000000000000000000000000000081526004016118c690612742565b60405180910390fd5b50505050565b6060600880546118e490612b98565b80601f016020809104026020016040519081016040528092919081815260200182805461191090612b98565b801561195d5780601f106119325761010080835404028352916020019161195d565b820191906000526020600020905b81548152906001019060200180831161194057829003601f168201915b5050505050905090565b606060008214156119af576040518060400160405280600181526020017f30000000000000000000000000000000000000000000000000000000000000008152509050611b0f565b600082905060005b600082146119e15780806119ca90612bfb565b915050600a826119da9190612a7d565b91506119b7565b60008167ffffffffffffffff811115611a23577f4e487b7100000000000000000000000000000000000000000000000000000000600052604160045260246000fd5b6040519080825280601f01601f191660200182016040528015611a555781602001600182028036833780820191505090505b5090505b60008514611b0857600182611a6e9190612aae565b9150600a85611a7d9190612c44565b6030611a899190612a27565b60f81b818381518110611ac5577f4e487b7100000000000000000000000000000000000000000000000000000000600052603260045260246000fd5b60200101907effffffffffffffffffffffffffffffffffffffffffffffffffffffffffffff1916908160001a905350600a85611b019190612a7d565b9450611a59565b8093505050505b919050565b611b1e8383611d10565b611b2b6000848484611b79565b611b6a576040517f08c379a0000000000000000000000000000000000000000000000000000000008152600401611b6190612742565b60405180910390fd5b505050565b505050565b505050565b6000611b9a8473ffffffffffffffffffffffffffffffffffffffff16611eea565b15611d03578373ffffffffffffffffffffffffffffffffffffffff1663150b7a02611bc36111ee565b8786866040518563ffffffff1660e01b8152600401611be594939291906126b9565b602060405180830381600087803b158015611bff57600080fd5b505af1925050508015611c3057506040513d601f19601f82011682018060405250810190611c2d91906122b9565b60015b611cb3573d8060008114611c60576040519150601f19603f3d011682016040523d82523d6000602084013e611c65565b606091505b50600081511415611cab576040517f08c379a0000000000000000000000000000000000000000000000000000000008152600401611ca290612742565b60405180910390fd5b805181602001fd5b63150b7a0260e01b7bffffffffffffffffffffffffffffffffffffffffffffffffffffffff1916817bffffffffffffffffffffffffffffffffffffffffffffffffffffffff191614915050611d08565b600190505b949350505050565b600073ffffffffffffffffffffffffffffffffffffffff168273ffffffffffffffffffffffffffffffffffffffff161415611d80576040517f08c379a0000000000000000000000000000000000000000000000000000000008152600401611d7790612882565b60405180910390fd5b611d8981611182565b15611dc9576040517f08c379a0000000000000000000000000000000000000000000000000000000008152600401611dc0906127a2565b60405180910390fd5b611dd560008383611b6f565b6001600360008473ffffffffffffffffffffffffffffffffffffffff1673ffffffffffffffffffffffffffffffffffffffff1681526020019081526020016000206000828254611e259190612a27565b92505081905550816002600083815260200190815260200160002060006101000a81548173ffffffffffffffffffffffffffffffffffffffff021916908373ffffffffffffffffffffffffffffffffffffffff160217905550808273ffffffffffffffffffffffffffffffffffffffff16600073ffffffffffffffffffffffffffffffffffffffff167fddf252ad1be2c89b69c2b068fc378daa952ba7f163c4a11628f55a4df523b3ef60405160405180910390a4611ee660008383611b74565b5050565b6000808273ffffffffffffffffffffffffffffffffffffffff163b119050919050565b828054611f1990612b98565b90600052602060002090601f016020900481019282611f3b5760008555611f82565b82601f10611f5457805160ff1916838001178555611f82565b82800160010185558215611f82579182015b82811115611f81578251825591602001919060010190611f66565b5b509050611f8f9190611f93565b5090565b5b80821115611fac576000816000905550600101611f94565b5090565b6000611fc3611fbe84612982565b61295d565b905082815260208101848484011115611fdb57600080fd5b611fe6848285612b56565b509392505050565b6000612001611ffc846129b3565b61295d565b90508281526020810184848401111561201957600080fd5b612024848285612b56565b509392505050565b60008135905061203b816131c3565b92915050565b600081359050612050816131da565b92915050565b600081359050612065816131f1565b92915050565b60008151905061207a816131f1565b92915050565b600082601f83011261209157600080fd5b81356120a1848260208601611fb0565b91505092915050565b600082601f8301126120bb57600080fd5b81356120cb848260208601611fee565b91505092915050565b6000813590506120e381613208565b92915050565b6000602082840312156120fb57600080fd5b60006121098482850161202c565b91505092915050565b6000806040838503121561212557600080fd5b60006121338582860161202c565b92505060206121448582860161202c565b9150509250929050565b60008060006060848603121561216357600080fd5b60006121718682870161202c565b93505060206121828682870161202c565b9250506040612193868287016120d4565b9150509250925092565b600080600080608085870312156121b357600080fd5b60006121c18782880161202c565b94505060206121d28782880161202c565b93505060406121e3878288016120d4565b925050606085013567ffffffffffffffff81111561220057600080fd5b61220c87828801612080565b91505092959194509250565b6000806040838503121561222b57600080fd5b60006122398582860161202c565b925050602061224a85828601612041565b9150509250929050565b6000806040838503121561226757600080fd5b60006122758582860161202c565b9250506020612286858286016120d4565b9150509250929050565b6000602082840312156122a257600080fd5b60006122b084828501612056565b91505092915050565b6000602082840312156122cb57600080fd5b60006122d98482850161206b565b91505092915050565b6000602082840312156122f457600080fd5b600082013567ffffffffffffffff81111561230e57600080fd5b61231a848285016120aa565b91505092915050565b60006020828403121561233557600080fd5b6000612343848285016120d4565b91505092915050565b61235581612ae2565b82525050565b61236481612af4565b82525050565b6000612375826129e4565b61237f81856129fa565b935061238f818560208601612b65565b61239881612d31565b840191505092915050565b60006123ae826129ef565b6123b88185612a0b565b93506123c8818560208601612b65565b6123d181612d31565b840191505092915050565b60006123e7826129ef565b6123f18185612a1c565b9350612401818560208601612b65565b80840191505092915050565b600061241a603283612a0b565b915061242582612d42565b604082019050919050565b600061243d602683612a0b565b915061244882612d91565b604082019050919050565b6000612460602583612a0b565b915061246b82612de0565b604082019050919050565b6000612483601c83612a0b565b915061248e82612e2f565b602082019050919050565b60006124a6602483612a0b565b91506124b182612e58565b604082019050919050565b60006124c9601983612a0b565b91506124d482612ea7565b602082019050919050565b60006124ec602c83612a0b565b91506124f782612ed0565b604082019050919050565b600061250f603883612a0b565b915061251a82612f1f565b604082019050919050565b6000612532602a83612a0b565b915061253d82612f6e565b604082019050919050565b6000612555602983612a0b565b915061256082612fbd565b604082019050919050565b6000612578602083612a0b565b91506125838261300c565b602082019050919050565b600061259b602c83612a0b565b91506125a682613035565b604082019050919050565b60006125be600583612a1c565b91506125c982613084565b600582019050919050565b60006125e1602083612a0b565b91506125ec826130ad565b602082019050919050565b6000612604602f83612a0b565b915061260f826130d6565b604082019050919050565b6000612627602183612a0b565b915061263282613125565b604082019050919050565b600061264a603183612a0b565b915061265582613174565b604082019050919050565b61266981612b4c565b82525050565b600061267b82856123dc565b915061268782846123dc565b9150612692826125b1565b91508190509392505050565b60006020820190506126b3600083018461234c565b92915050565b60006080820190506126ce600083018761234c565b6126db602083018661234c565b6126e86040830185612660565b81810360608301526126fa818461236a565b905095945050505050565b600060208201905061271a600083018461235b565b92915050565b6000602082019050818103600083015261273a81846123a3565b905092915050565b6000602082019050818103600083015261275b8161240d565b9050919050565b6000602082019050818103600083015261277b81612430565b9050919050565b6000602082019050818103600083015261279b81612453565b9050919050565b600060208201905081810360008301526127bb81612476565b9050919050565b600060208201905081810360008301526127db81612499565b9050919050565b600060208201905081810360008301526127fb816124bc565b9050919050565b6000602082019050818103600083015261281b816124df565b9050919050565b6000602082019050818103600083015261283b81612502565b9050919050565b6000602082019050818103600083015261285b81612525565b9050919050565b6000602082019050818103600083015261287b81612548565b9050919050565b6000602082019050818103600083015261289b8161256b565b9050919050565b600060208201905081810360008301526128bb8161258e565b9050919050565b600060208201905081810360008301526128db816125d4565b9050919050565b600060208201905081810360008301526128fb816125f7565b9050919050565b6000602082019050818103600083015261291b8161261a565b9050919050565b6000602082019050818103600083015261293b8161263d565b9050919050565b60006020820190506129576000830184612660565b92915050565b6000612967612978565b90506129738282612bca565b919050565b6000604051905090565b600067ffffffffffffffff82111561299d5761299c612d02565b5b6129a682612d31565b9050602081019050919050565b600067ffffffffffffffff8211156129ce576129cd612d02565b5b6129d782612d31565b9050602081019050919050565b600081519050919050565b600081519050919050565b600082825260208201905092915050565b600082825260208201905092915050565b600081905092915050565b6000612a3282612b4c565b9150612a3d83612b4c565b9250827fffffffffffffffffffffffffffffffffffffffffffffffffffffffffffffffff03821115612a7257612a71612c75565b5b828201905092915050565b6000612a8882612b4c565b9150612a9383612b4c565b925082612aa357612aa2612ca4565b5b828204905092915050565b6000612ab982612b4c565b9150612ac483612b4c565b925082821015612ad757612ad6612c75565b5b828203905092915050565b6000612aed82612b2c565b9050919050565b60008115159050919050565b60007fffffffff0000000000000000000000000000000000000000000000000000000082169050919050565b600073ffffffffffffffffffffffffffffffffffffffff82169050919050565b6000819050919050565b82818337600083830152505050565b60005b83811015612b83578082015181840152602081019050612b68565b83811115612b92576000848401525b50505050565b60006002820490506001821680612bb057607f821691505b60208210811415612bc457612bc3612cd3565b5b50919050565b612bd382612d31565b810181811067ffffffffffffffff82111715612bf257612bf1612d02565b5b80604052505050565b6000612c0682612b4c565b91507fffffffffffffffffffffffffffffffffffffffffffffffffffffffffffffffff821415612c3957612c38612c75565b5b600182019050919050565b6000612c4f82612b4c565b9150612c5a83612b4c565b925082612c6a57612c69612ca4565b5b828206905092915050565b7f4e487b7100000000000000000000000000000000000000000000000000000000600052601160045260246000fd5b7f4e487b7100000000000000000000000000000000000000000000000000000000600052601260045260246000fd5b7f4e487b7100000000000000000000000000000000000000000000000000000000600052602260045260246000fd5b7f4e487b7100000000000000000000000000000000000000000000000000000000600052604160045260246000fd5b6000601f19601f8301169050919050565b7f4552433732313a207472616e7366657220746f206e6f6e20455243373231526560008201527f63656976657220696d706c656d656e7465720000000000000000000000000000602082015250565b7f4f776e61626c653a206e6577206f776e657220697320746865207a65726f206160008201527f6464726573730000000000000000000000000000000000000000000000000000602082015250565b7f4552433732313a207472616e736665722066726f6d20696e636f72726563742060008201527f6f776e6572000000000000000000000000000000000000000000000000000000602082015250565b7f4552433732313a20746f6b656e20616c7265616479206d696e74656400000000600082015250565b7f4552433732313a207472616e7366657220746f20746865207a65726f2061646460008201527f7265737300000000000000000000000000000000000000000000000000000000602082015250565b7f4552433732313a20617070726f766520746f2063616c6c657200000000000000600082015250565b7f4552433732313a206f70657261746f7220717565727920666f72206e6f6e657860008201527f697374656e7420746f6b656e0000000000000000000000000000000000000000602082015250565b7f4552433732313a20617070726f76652063616c6c6572206973206e6f74206f7760008201527f6e6572206e6f7220617070726f76656420666f7220616c6c0000000000000000602082015250565b7f4552433732313a2062616c616e636520717565727920666f7220746865207a6560008201527f726f206164647265737300000000000000000000000000000000000000000000602082015250565b7f4552433732313a206f776e657220717565727920666f72206e6f6e657869737460008201527f656e7420746f6b656e0000000000000000000000000000000000000000000000602082015250565b7f4552433732313a206d696e7420746f20746865207a65726f2061646472657373600082015250565b7f4552433732313a20617070726f76656420717565727920666f72206e6f6e657860008201527f697374656e7420746f6b656e0000000000000000000000000000000000000000602082015250565b7f2e6a736f6e000000000000000000000000000000000000000000000000000000600082015250565b7f4f776e61626c653a2063616c6c6572206973206e6f7420746865206f776e6572600082015250565b7f4552433732314d657461646174613a2055524920717565727920666f72206e6f60008201527f6e6578697374656e7420746f6b656e0000000000000000000000000000000000602082015250565b7f4552433732313a20617070726f76616c20746f2063757272656e74206f776e6560008201527f7200000000000000000000000000000000000000000000000000000000000000602082015250565b7f4552433732313a207472616e736665722063616c6c6572206973206e6f74206f60008201527f776e6572206e6f7220617070726f766564000000000000000000000000000000602082015250565b6131cc81612ae2565b81146131d757600080fd5b50565b6131e381612af4565b81146131ee57600080fd5b50565b6131fa81612b00565b811461320557600080fd5b50565b61321181612b4c565b811461321c57600080fd5b5056fea26469706673582212204d6c58574dade312b59eb5fe7374ec72c4a14e7eadd2ebc2503f840af81033c964736f6c63430008040033",
  "linkReferences": {},
  "deployedLinkReferences": {}
}