{
  "_format": "hh-sol-artifact-1",
  "contractName": "VirusNFT",
  "sourceName": "contracts/VirusNFT.sol",
  "abi": [
    {
      "inputs": [
        {
          "internalType": "string",
          "name": "_name",
          "type": "string"
        },
        {
          "internalType": "string",
          "name": "_symbol",
          "type": "string"
        },
        {
          "internalType": "uint256",
          "name": "_maxSupply",
          "type": "uint256"
        },
        {
          "internalType": "string",
          "name": "_initBaseURI",
          "type": "string"
        }
      ],
      "stateMutability": "nonpayable",
      "type": "constructor"
    },
    {
      "anonymous": false,
      "inputs": [
        {
          "indexed": true,
          "internalType": "address",
          "name": "owner",
          "type": "address"
        },
        {
          "indexed": true,
          "internalType": "address",
          "name": "approved",
          "type": "address"
        },
        {
          "indexed": true,
          "internalType": "uint256",
          "name": "tokenId",
          "type": "uint256"
        }
      ],
      "name": "Approval",
      "type": "event"
    },
    {
      "anonymous": false,
      "inputs": [
        {
          "indexed": true,
          "internalType": "address",
          "name": "owner",
          "type": "address"
        },
        {
          "indexed": true,
          "internalType": "address",
          "name": "operator",
          "type": "address"
        },
        {
          "indexed": false,
          "internalType": "bool",
          "name": "approved",
          "type": "bool"
        }
      ],
      "name": "ApprovalForAll",
      "type": "event"
    },
    {
      "anonymous": false,
      "inputs": [
        {
          "indexed": true,
          "internalType": "address",
          "name": "previousOwner",
          "type": "address"
        },
        {
          "indexed": true,
          "internalType": "address",
          "name": "newOwner",
          "type": "address"
        }
      ],
      "name": "OwnershipTransferred",
      "type": "event"
    },
    {
      "anonymous": false,
      "inputs": [
        {
          "indexed": true,
          "internalType": "address",
          "name": "from",
          "type": "address"
        },
        {
          "indexed": true,
          "internalType": "address",
          "name": "to",
          "type": "address"
        },
        {
          "indexed": true,
          "internalType": "uint256",
          "name": "tokenId",
          "type": "uint256"
        }
      ],
      "name": "Transfer",
      "type": "event"
    },
    {
      "inputs": [
        {
          "internalType": "address",
          "name": "to",
          "type": "address"
        },
        {
          "internalType": "uint256",
          "name": "tokenId",
          "type": "uint256"
        }
      ],
      "name": "approve",
      "outputs": [],
      "stateMutability": "nonpayable",
      "type": "function"
    },
    {
      "inputs": [
        {
          "internalType": "address",
          "name": "owner",
          "type": "address"
        }
      ],
      "name": "balanceOf",
      "outputs": [
        {
          "internalType": "uint256",
          "name": "",
          "type": "uint256"
        }
      ],
      "stateMutability": "view",
      "type": "function"
    },
    {
      "inputs": [
        {
          "internalType": "uint256",
          "name": "tokenId",
          "type": "uint256"
        }
      ],
      "name": "getApproved",
      "outputs": [
        {
          "internalType": "address",
          "name": "",
          "type": "address"
        }
      ],
      "stateMutability": "view",
      "type": "function"
    },
    {
      "inputs": [],
      "name": "getTotalSupply",
      "outputs": [
        {
          "internalType": "uint256",
          "name": "",
          "type": "uint256"
        }
      ],
      "stateMutability": "view",
      "type": "function"
    },
    {
      "inputs": [
        {
          "internalType": "address",
          "name": "owner",
          "type": "address"
        },
        {
          "internalType": "address",
          "name": "operator",
          "type": "address"
        }
      ],
      "name": "isApprovedForAll",
      "outputs": [
        {
          "internalType": "bool",
          "name": "",
          "type": "bool"
        }
      ],
      "stateMutability": "view",
      "type": "function"
    },
    {
      "inputs": [],
      "name": "mint",
      "outputs": [],
      "stateMutability": "nonpayable",
      "type": "function"
    },
    {
      "inputs": [],
      "name": "name",
      "outputs": [
        {
          "internalType": "string",
          "name": "",
          "type": "string"
        }
      ],
      "stateMutability": "view",
      "type": "function"
    },
    {
      "inputs": [],
      "name": "owner",
      "outputs": [
        {
          "internalType": "address",
          "name": "",
          "type": "address"
        }
      ],
      "stateMutability": "view",
      "type": "function"
    },
    {
      "inputs": [
        {
          "internalType": "uint256",
          "name": "tokenId",
          "type": "uint256"
        }
      ],
      "name": "ownerOf",
      "outputs": [
        {
          "internalType": "address",
          "name": "",
          "type": "address"
        }
      ],
      "stateMutability": "view",
      "type": "function"
    },
    {
      "inputs": [],
      "name": "renounceOwnership",
      "outputs": [],
      "stateMutability": "nonpayable",
      "type": "function"
    },
    {
      "inputs": [
        {
          "internalType": "address",
          "name": "from",
          "type": "address"
        },
        {
          "internalType": "address",
          "name": "to",
          "type": "address"
        },
        {
          "internalType": "uint256",
          "name": "tokenId",
          "type": "uint256"
        }
      ],
      "name": "safeTransferFrom",
      "outputs": [],
      "stateMutability": "nonpayable",
      "type": "function"
    },
    {
      "inputs": [
        {
          "internalType": "address",
          "name": "from",
          "type": "address"
        },
        {
          "internalType": "address",
          "name": "to",
          "type": "address"
        },
        {
          "internalType": "uint256",
          "name": "tokenId",
          "type": "uint256"
        },
        {
          "internalType": "bytes",
          "name": "_data",
          "type": "bytes"
        }
      ],
      "name": "safeTransferFrom",
      "outputs": [],
      "stateMutability": "nonpayable",
      "type": "function"
    },
    {
      "inputs": [
        {
          "internalType": "address",
          "name": "operator",
          "type": "address"
        },
        {
          "internalType": "bool",
          "name": "approved",
          "type": "bool"
        }
      ],
      "name": "setApprovalForAll",
      "outputs": [],
      "stateMutability": "nonpayable",
      "type": "function"
    },
    {
      "inputs": [
        {
          "internalType": "string",
          "name": "_newBaseURI",
          "type": "string"
        }
      ],
      "name": "setBaseURI",
      "outputs": [],
      "stateMutability": "nonpayable",
      "type": "function"
    },
    {
      "inputs": [],
      "name": "setPaused",
      "outputs": [],
      "stateMutability": "nonpayable",
      "type": "function"
    },
    {
      "inputs": [],
      "name": "setUnpaused",
      "outputs": [],
      "stateMutability": "nonpayable",
      "type": "function"
    },
    {
      "inputs": [
        {
          "internalType": "bytes4",
          "name": "interfaceId",
          "type": "bytes4"
        }
      ],
      "name": "supportsInterface",
      "outputs": [
        {
          "internalType": "bool",
          "name": "",
          "type": "bool"
        }
      ],
      "stateMutability": "view",
      "type": "function"
    },
    {
      "inputs": [],
      "name": "symbol",
      "outputs": [
        {
          "internalType": "string",
          "name": "",
          "type": "string"
        }
      ],
      "stateMutability": "view",
      "type": "function"
    },
    {
      "inputs": [
        {
          "internalType": "uint256",
          "name": "tokenId",
          "type": "uint256"
        }
      ],
      "name": "tokenURI",
      "outputs": [
        {
          "internalType": "string",
          "name": "",
          "type": "string"
        }
      ],
      "stateMutability": "view",
      "type": "function"
    },
    {
      "inputs": [
        {
          "internalType": "address",
          "name": "from",
          "type": "address"
        },
        {
          "internalType": "address",
          "name": "to",
          "type": "address"
        },
        {
          "internalType": "uint256",
          "name": "tokenId",
          "type": "uint256"
        }
      ],
      "name": "transferFrom",
      "outputs": [],
      "stateMutability": "nonpayable",
      "type": "function"
    },
    {
      "inputs": [
        {
          "internalType": "address",
          "name": "newOwner",
          "type": "address"
        }
      ],
      "name": "transferOwnership",
      "outputs": [],
      "stateMutability": "nonpayable",
      "type": "function"
    }
  ],
  "bytecode": "0x60806040526000600a60006101000a81548160ff0219169083151502179055503480156200002c57600080fd5b50604051620036cb380380620036cb8339818101604052810190620000529190620003a6565b838381600090805190602001906200006c9291906200026d565b508060019080519060200190620000859291906200026d565b505050620000a86200009c620000ca60201b60201c565b620000d260201b60201c565b620000b9816200019860201b60201c565b816009819055505050505062000674565b600033905090565b6000600660009054906101000a900473ffffffffffffffffffffffffffffffffffffffff16905081600660006101000a81548173ffffffffffffffffffffffffffffffffffffffff021916908373ffffffffffffffffffffffffffffffffffffffff1602179055508173ffffffffffffffffffffffffffffffffffffffff168173ffffffffffffffffffffffffffffffffffffffff167f8be0079c531659141344cd1fd0a4f28419497f9722a3daafe3b4186f6b6457e060405160405180910390a35050565b620001a8620000ca60201b60201c565b73ffffffffffffffffffffffffffffffffffffffff16620001ce6200024360201b60201c565b73ffffffffffffffffffffffffffffffffffffffff161462000227576040517f08c379a00000000000000000000000000000000000000000000000000000000081526004016200021e9062000484565b60405180910390fd5b80600890805190602001906200023f9291906200026d565b5050565b6000600660009054906101000a900473ffffffffffffffffffffffffffffffffffffffff16905090565b8280546200027b9062000556565b90600052602060002090601f0160209004810192826200029f5760008555620002eb565b82601f10620002ba57805160ff1916838001178555620002eb565b82800160010185558215620002eb579182015b82811115620002ea578251825591602001919060010190620002cd565b5b509050620002fa9190620002fe565b5090565b5b8082111562000319576000816000905550600101620002ff565b5090565b6000620003346200032e84620004cf565b620004a6565b9050828152602081018484840111156200034d57600080fd5b6200035a84828562000520565b509392505050565b600082601f8301126200037457600080fd5b8151620003868482602086016200031d565b91505092915050565b600081519050620003a0816200065a565b92915050565b60008060008060808587031215620003bd57600080fd5b600085015167ffffffffffffffff811115620003d857600080fd5b620003e68782880162000362565b945050602085015167ffffffffffffffff8111156200040457600080fd5b620004128782880162000362565b935050604062000425878288016200038f565b925050606085015167ffffffffffffffff8111156200044357600080fd5b620004518782880162000362565b91505092959194509250565b60006200046c60208362000505565b9150620004798262000631565b602082019050919050565b600060208201905081810360008301526200049f816200045d565b9050919050565b6000620004b2620004c5565b9050620004c082826200058c565b919050565b6000604051905090565b600067ffffffffffffffff821115620004ed57620004ec620005f1565b5b620004f88262000620565b9050602081019050919050565b600082825260208201905092915050565b6000819050919050565b60005b838110156200054057808201518184015260208101905062000523565b8381111562000550576000848401525b50505050565b600060028204905060018216806200056f57607f821691505b60208210811415620005865762000585620005c2565b5b50919050565b620005978262000620565b810181811067ffffffffffffffff82111715620005b957620005b8620005f1565b5b80604052505050565b7f4e487b7100000000000000000000000000000000000000000000000000000000600052602260045260246000fd5b7f4e487b7100000000000000000000000000000000000000000000000000000000600052604160045260246000fd5b6000601f19601f8301169050919050565b7f4f776e61626c653a2063616c6c6572206973206e6f7420746865206f776e6572600082015250565b620006658162000516565b81146200067157600080fd5b50565b61304780620006846000396000f3fe608060405234801561001057600080fd5b50600436106101375760003560e01c80636352211e116100b8578063a22cb4651161007c578063a22cb465146102ee578063b88d4fde1461030a578063c4e41b2214610326578063c87b56dd14610344578063e985e9c514610374578063f2fde38b146103a457610137565b80636352211e1461024857806370a0823114610278578063715018a6146102a85780638da5cb5b146102b257806395d89b41146102d057610137565b806323b872dd116100ff57806323b872dd146101e057806337a66d85146101fc5780633c89edce1461020657806342842e0e1461021057806355f804b31461022c57610137565b806301ffc9a71461013c57806306fdde031461016c578063081812fc1461018a578063095ea7b3146101ba5780631249c58b146101d6575b600080fd5b61015660048036038101906101519190612082565b6103c0565b60405161016391906124f7565b60405180910390f35b6101746104a2565b6040516101819190612512565b60405180910390f35b6101a4600480360381019061019f9190612115565b610534565b6040516101b19190612490565b60405180910390f35b6101d460048036038101906101cf9190612046565b6105b9565b005b6101de6106d1565b005b6101fa60048036038101906101f59190611f40565b610757565b005b6102046107b7565b005b61020e610850565b005b61022a60048036038101906102259190611f40565b6108e9565b005b610246600480360381019061024191906120d4565b610909565b005b610262600480360381019061025d9190612115565b61099f565b60405161026f9190612490565b60405180910390f35b610292600480360381019061028d9190611edb565b610a51565b60405161029f9190612734565b60405180910390f35b6102b0610b09565b005b6102ba610b91565b6040516102c79190612490565b60405180910390f35b6102d8610bbb565b6040516102e59190612512565b60405180910390f35b6103086004803603810190610303919061200a565b610c4d565b005b610324600480360381019061031f9190611f8f565b610c63565b005b61032e610cc5565b60405161033b9190612734565b60405180910390f35b61035e60048036038101906103599190612115565b610cd6565b60405161036b9190612512565b60405180910390f35b61038e60048036038101906103899190611f04565b610d7e565b60405161039b91906124f7565b60405180910390f35b6103be60048036038101906103b99190611edb565b610e12565b005b60007f80ac58cd000000000000000000000000000000000000000000000000000000007bffffffffffffffffffffffffffffffffffffffffffffffffffffffff1916827bffffffffffffffffffffffffffffffffffffffffffffffffffffffff1916148061048b57507f5b5e139f000000000000000000000000000000000000000000000000000000007bffffffffffffffffffffffffffffffffffffffffffffffffffffffff1916827bffffffffffffffffffffffffffffffffffffffffffffffffffffffff1916145b8061049b575061049a82610f0a565b5b9050919050565b6060600080546104b19061298a565b80601f01602080910402602001604051908101604052809291908181526020018280546104dd9061298a565b801561052a5780601f106104ff5761010080835404028352916020019161052a565b820191906000526020600020905b81548152906001019060200180831161050d57829003601f168201915b5050505050905090565b600061053f82610f74565b61057e576040517f08c379a000000000000000000000000000000000000000000000000000000000815260040161057590612694565b60405180910390fd5b6004600083815260200190815260200160002060009054906101000a900473ffffffffffffffffffffffffffffffffffffffff169050919050565b60006105c48261099f565b90508073ffffffffffffffffffffffffffffffffffffffff168373ffffffffffffffffffffffffffffffffffffffff161415610635576040517f08c379a000000000000000000000000000000000000000000000000000000000815260040161062c906126f4565b60405180910390fd5b8073ffffffffffffffffffffffffffffffffffffffff16610654610fe0565b73ffffffffffffffffffffffffffffffffffffffff16148061068357506106828161067d610fe0565b610d7e565b5b6106c2576040517f08c379a00000000000000000000000000000000000000000000000000000000081526004016106b990612614565b60405180910390fd5b6106cc8383610fe8565b505050565b6106d9610b91565b73ffffffffffffffffffffffffffffffffffffffff163373ffffffffffffffffffffffffffffffffffffffff16146107205760016107156110a1565b1061071f57600080fd5b5b61072a60076110b1565b61073460076110c7565b600954101561074257600080fd5b6107553361075060076110c7565b6110d5565b565b610768610762610fe0565b826110f3565b6107a7576040517f08c379a000000000000000000000000000000000000000000000000000000000815260040161079e90612714565b60405180910390fd5b6107b28383836111d1565b505050565b6107bf610fe0565b73ffffffffffffffffffffffffffffffffffffffff166107dd610b91565b73ffffffffffffffffffffffffffffffffffffffff1614610833576040517f08c379a000000000000000000000000000000000000000000000000000000000815260040161082a906126b4565b60405180910390fd5b6001600a60006101000a81548160ff021916908315150217905550565b610858610fe0565b73ffffffffffffffffffffffffffffffffffffffff16610876610b91565b73ffffffffffffffffffffffffffffffffffffffff16146108cc576040517f08c379a00000000000000000000000000000000000000000000000000000000081526004016108c3906126b4565b60405180910390fd5b6000600a60006101000a81548160ff021916908315150217905550565b61090483838360405180602001604052806000815250610c63565b505050565b610911610fe0565b73ffffffffffffffffffffffffffffffffffffffff1661092f610b91565b73ffffffffffffffffffffffffffffffffffffffff1614610985576040517f08c379a000000000000000000000000000000000000000000000000000000000815260040161097c906126b4565b60405180910390fd5b806008908051906020019061099b929190611cff565b5050565b6000806002600084815260200190815260200160002060009054906101000a900473ffffffffffffffffffffffffffffffffffffffff169050600073ffffffffffffffffffffffffffffffffffffffff168173ffffffffffffffffffffffffffffffffffffffff161415610a48576040517f08c379a0000000000000000000000000000000000000000000000000000000008152600401610a3f90612654565b60405180910390fd5b80915050919050565b60008073ffffffffffffffffffffffffffffffffffffffff168273ffffffffffffffffffffffffffffffffffffffff161415610ac2576040517f08c379a0000000000000000000000000000000000000000000000000000000008152600401610ab990612634565b60405180910390fd5b600360008373ffffffffffffffffffffffffffffffffffffffff1673ffffffffffffffffffffffffffffffffffffffff168152602001908152602001600020549050919050565b610b11610fe0565b73ffffffffffffffffffffffffffffffffffffffff16610b2f610b91565b73ffffffffffffffffffffffffffffffffffffffff1614610b85576040517f08c379a0000000000000000000000000000000000000000000000000000000008152600401610b7c906126b4565b60405180910390fd5b610b8f6000611438565b565b6000600660009054906101000a900473ffffffffffffffffffffffffffffffffffffffff16905090565b606060018054610bca9061298a565b80601f0160208091040260200160405190810160405280929190818152602001828054610bf69061298a565b8015610c435780601f10610c1857610100808354040283529160200191610c43565b820191906000526020600020905b815481529060010190602001808311610c2657829003601f168201915b5050505050905090565b610c5f610c58610fe0565b83836114fe565b5050565b610c74610c6e610fe0565b836110f3565b610cb3576040517f08c379a0000000000000000000000000000000000000000000000000000000008152600401610caa90612714565b60405180910390fd5b610cbf8484848461166b565b50505050565b6000610cd160076110c7565b905090565b6060610ce182610f74565b610d20576040517f08c379a0000000000000000000000000000000000000000000000000000000008152600401610d17906126d4565b60405180910390fd5b6000610d2a6116c7565b5111610d455760405180602001604052806000815250610d77565b610d4d6116c7565b610d5683611759565b604051602001610d67929190612461565b6040516020818303038152906040525b9050919050565b6000600560008473ffffffffffffffffffffffffffffffffffffffff1673ffffffffffffffffffffffffffffffffffffffff16815260200190815260200160002060008373ffffffffffffffffffffffffffffffffffffffff1673ffffffffffffffffffffffffffffffffffffffff16815260200190815260200160002060009054906101000a900460ff16905092915050565b610e1a610fe0565b73ffffffffffffffffffffffffffffffffffffffff16610e38610b91565b73ffffffffffffffffffffffffffffffffffffffff1614610e8e576040517f08c379a0000000000000000000000000000000000000000000000000000000008152600401610e85906126b4565b60405180910390fd5b600073ffffffffffffffffffffffffffffffffffffffff168173ffffffffffffffffffffffffffffffffffffffff161415610efe576040517f08c379a0000000000000000000000000000000000000000000000000000000008152600401610ef590612554565b60405180910390fd5b610f0781611438565b50565b60007f01ffc9a7000000000000000000000000000000000000000000000000000000007bffffffffffffffffffffffffffffffffffffffffffffffffffffffff1916827bffffffffffffffffffffffffffffffffffffffffffffffffffffffff1916149050919050565b60008073ffffffffffffffffffffffffffffffffffffffff166002600084815260200190815260200160002060009054906101000a900473ffffffffffffffffffffffffffffffffffffffff1673ffffffffffffffffffffffffffffffffffffffff1614159050919050565b600033905090565b816004600083815260200190815260200160002060006101000a81548173ffffffffffffffffffffffffffffffffffffffff021916908373ffffffffffffffffffffffffffffffffffffffff160217905550808273ffffffffffffffffffffffffffffffffffffffff1661105b8361099f565b73ffffffffffffffffffffffffffffffffffffffff167f8c5be1e5ebec7d5bd14f71427d1e84f3dd0314c0f7b2291e5b200ac8c7c3b92560405160405180910390a45050565b60006110ac33610a51565b905090565b6001816000016000828254019250508190555050565b600081600001549050919050565b6110ef828260405180602001604052806000815250611906565b5050565b60006110fe82610f74565b61113d576040517f08c379a0000000000000000000000000000000000000000000000000000000008152600401611134906125f4565b60405180910390fd5b60006111488361099f565b90508073ffffffffffffffffffffffffffffffffffffffff168473ffffffffffffffffffffffffffffffffffffffff1614806111b757508373ffffffffffffffffffffffffffffffffffffffff1661119f84610534565b73ffffffffffffffffffffffffffffffffffffffff16145b806111c857506111c78185610d7e565b5b91505092915050565b8273ffffffffffffffffffffffffffffffffffffffff166111f18261099f565b73ffffffffffffffffffffffffffffffffffffffff1614611247576040517f08c379a000000000000000000000000000000000000000000000000000000000815260040161123e90612574565b60405180910390fd5b600073ffffffffffffffffffffffffffffffffffffffff168273ffffffffffffffffffffffffffffffffffffffff1614156112b7576040517f08c379a00000000000000000000000000000000000000000000000000000000081526004016112ae906125b4565b60405180910390fd5b6112c2838383611961565b6112cd600082610fe8565b6001600360008573ffffffffffffffffffffffffffffffffffffffff1673ffffffffffffffffffffffffffffffffffffffff168152602001908152602001600020600082825461131d91906128a0565b925050819055506001600360008473ffffffffffffffffffffffffffffffffffffffff1673ffffffffffffffffffffffffffffffffffffffff16815260200190815260200160002060008282546113749190612819565b92505081905550816002600083815260200190815260200160002060006101000a81548173ffffffffffffffffffffffffffffffffffffffff021916908373ffffffffffffffffffffffffffffffffffffffff160217905550808273ffffffffffffffffffffffffffffffffffffffff168473ffffffffffffffffffffffffffffffffffffffff167fddf252ad1be2c89b69c2b068fc378daa952ba7f163c4a11628f55a4df523b3ef60405160405180910390a4611433838383611966565b505050565b6000600660009054906101000a900473ffffffffffffffffffffffffffffffffffffffff16905081600660006101000a81548173ffffffffffffffffffffffffffffffffffffffff021916908373ffffffffffffffffffffffffffffffffffffffff1602179055508173ffffffffffffffffffffffffffffffffffffffff168173ffffffffffffffffffffffffffffffffffffffff167f8be0079c531659141344cd1fd0a4f28419497f9722a3daafe3b4186f6b6457e060405160405180910390a35050565b8173ffffffffffffffffffffffffffffffffffffffff168373ffffffffffffffffffffffffffffffffffffffff16141561156d576040517f08c379a0000000000000000000000000000000000000000000000000000000008152600401611564906125d4565b60405180910390fd5b80600560008573ffffffffffffffffffffffffffffffffffffffff1673ffffffffffffffffffffffffffffffffffffffff16815260200190815260200160002060008473ffffffffffffffffffffffffffffffffffffffff1673ffffffffffffffffffffffffffffffffffffffff16815260200190815260200160002060006101000a81548160ff0219169083151502179055508173ffffffffffffffffffffffffffffffffffffffff168373ffffffffffffffffffffffffffffffffffffffff167f17307eab39ab6107e8899845ad3d59bd9653f200f220920489ca2b5937696c318360405161165e91906124f7565b60405180910390a3505050565b6116768484846111d1565b6116828484848461196b565b6116c1576040517f08c379a00000000000000000000000000000000000000000000000000000000081526004016116b890612534565b60405180910390fd5b50505050565b6060600880546116d69061298a565b80601f01602080910402602001604051908101604052809291908181526020018280546117029061298a565b801561174f5780601f106117245761010080835404028352916020019161174f565b820191906000526020600020905b81548152906001019060200180831161173257829003601f168201915b5050505050905090565b606060008214156117a1576040518060400160405280600181526020017f30000000000000000000000000000000000000000000000000000000000000008152509050611901565b600082905060005b600082146117d35780806117bc906129ed565b915050600a826117cc919061286f565b91506117a9565b60008167ffffffffffffffff811115611815577f4e487b7100000000000000000000000000000000000000000000000000000000600052604160045260246000fd5b6040519080825280601f01601f1916602001820160405280156118475781602001600182028036833780820191505090505b5090505b600085146118fa5760018261186091906128a0565b9150600a8561186f9190612a36565b603061187b9190612819565b60f81b8183815181106118b7577f4e487b7100000000000000000000000000000000000000000000000000000000600052603260045260246000fd5b60200101907effffffffffffffffffffffffffffffffffffffffffffffffffffffffffffff1916908160001a905350600a856118f3919061286f565b945061184b565b8093505050505b919050565b6119108383611b02565b61191d600084848461196b565b61195c576040517f08c379a000000000000000000000000000000000000000000000000000000000815260040161195390612534565b60405180910390fd5b505050565b505050565b505050565b600061198c8473ffffffffffffffffffffffffffffffffffffffff16611cdc565b15611af5578373ffffffffffffffffffffffffffffffffffffffff1663150b7a026119b5610fe0565b8786866040518563ffffffff1660e01b81526004016119d794939291906124ab565b602060405180830381600087803b1580156119f157600080fd5b505af1925050508015611a2257506040513d601f19601f82011682018060405250810190611a1f91906120ab565b60015b611aa5573d8060008114611a52576040519150601f19603f3d011682016040523d82523d6000602084013e611a57565b606091505b50600081511415611a9d576040517f08c379a0000000000000000000000000000000000000000000000000000000008152600401611a9490612534565b60405180910390fd5b805181602001fd5b63150b7a0260e01b7bffffffffffffffffffffffffffffffffffffffffffffffffffffffff1916817bffffffffffffffffffffffffffffffffffffffffffffffffffffffff191614915050611afa565b600190505b949350505050565b600073ffffffffffffffffffffffffffffffffffffffff168273ffffffffffffffffffffffffffffffffffffffff161415611b72576040517f08c379a0000000000000000000000000000000000000000000000000000000008152600401611b6990612674565b60405180910390fd5b611b7b81610f74565b15611bbb576040517f08c379a0000000000000000000000000000000000000000000000000000000008152600401611bb290612594565b60405180910390fd5b611bc760008383611961565b6001600360008473ffffffffffffffffffffffffffffffffffffffff1673ffffffffffffffffffffffffffffffffffffffff1681526020019081526020016000206000828254611c179190612819565b92505081905550816002600083815260200190815260200160002060006101000a81548173ffffffffffffffffffffffffffffffffffffffff021916908373ffffffffffffffffffffffffffffffffffffffff160217905550808273ffffffffffffffffffffffffffffffffffffffff16600073ffffffffffffffffffffffffffffffffffffffff167fddf252ad1be2c89b69c2b068fc378daa952ba7f163c4a11628f55a4df523b3ef60405160405180910390a4611cd860008383611966565b5050565b6000808273ffffffffffffffffffffffffffffffffffffffff163b119050919050565b828054611d0b9061298a565b90600052602060002090601f016020900481019282611d2d5760008555611d74565b82601f10611d4657805160ff1916838001178555611d74565b82800160010185558215611d74579182015b82811115611d73578251825591602001919060010190611d58565b5b509050611d819190611d85565b5090565b5b80821115611d9e576000816000905550600101611d86565b5090565b6000611db5611db084612774565b61274f565b905082815260208101848484011115611dcd57600080fd5b611dd8848285612948565b509392505050565b6000611df3611dee846127a5565b61274f565b905082815260208101848484011115611e0b57600080fd5b611e16848285612948565b509392505050565b600081359050611e2d81612fb5565b92915050565b600081359050611e4281612fcc565b92915050565b600081359050611e5781612fe3565b92915050565b600081519050611e6c81612fe3565b92915050565b600082601f830112611e8357600080fd5b8135611e93848260208601611da2565b91505092915050565b600082601f830112611ead57600080fd5b8135611ebd848260208601611de0565b91505092915050565b600081359050611ed581612ffa565b92915050565b600060208284031215611eed57600080fd5b6000611efb84828501611e1e565b91505092915050565b60008060408385031215611f1757600080fd5b6000611f2585828601611e1e565b9250506020611f3685828601611e1e565b9150509250929050565b600080600060608486031215611f5557600080fd5b6000611f6386828701611e1e565b9350506020611f7486828701611e1e565b9250506040611f8586828701611ec6565b9150509250925092565b60008060008060808587031215611fa557600080fd5b6000611fb387828801611e1e565b9450506020611fc487828801611e1e565b9350506040611fd587828801611ec6565b925050606085013567ffffffffffffffff811115611ff257600080fd5b611ffe87828801611e72565b91505092959194509250565b6000806040838503121561201d57600080fd5b600061202b85828601611e1e565b925050602061203c85828601611e33565b9150509250929050565b6000806040838503121561205957600080fd5b600061206785828601611e1e565b925050602061207885828601611ec6565b9150509250929050565b60006020828403121561209457600080fd5b60006120a284828501611e48565b91505092915050565b6000602082840312156120bd57600080fd5b60006120cb84828501611e5d565b91505092915050565b6000602082840312156120e657600080fd5b600082013567ffffffffffffffff81111561210057600080fd5b61210c84828501611e9c565b91505092915050565b60006020828403121561212757600080fd5b600061213584828501611ec6565b91505092915050565b612147816128d4565b82525050565b612156816128e6565b82525050565b6000612167826127d6565b61217181856127ec565b9350612181818560208601612957565b61218a81612b23565b840191505092915050565b60006121a0826127e1565b6121aa81856127fd565b93506121ba818560208601612957565b6121c381612b23565b840191505092915050565b60006121d9826127e1565b6121e3818561280e565b93506121f3818560208601612957565b80840191505092915050565b600061220c6032836127fd565b915061221782612b34565b604082019050919050565b600061222f6026836127fd565b915061223a82612b83565b604082019050919050565b60006122526025836127fd565b915061225d82612bd2565b604082019050919050565b6000612275601c836127fd565b915061228082612c21565b602082019050919050565b60006122986024836127fd565b91506122a382612c4a565b604082019050919050565b60006122bb6019836127fd565b91506122c682612c99565b602082019050919050565b60006122de602c836127fd565b91506122e982612cc2565b604082019050919050565b60006123016038836127fd565b915061230c82612d11565b604082019050919050565b6000612324602a836127fd565b915061232f82612d60565b604082019050919050565b60006123476029836127fd565b915061235282612daf565b604082019050919050565b600061236a6020836127fd565b915061237582612dfe565b602082019050919050565b600061238d602c836127fd565b915061239882612e27565b604082019050919050565b60006123b060058361280e565b91506123bb82612e76565b600582019050919050565b60006123d36020836127fd565b91506123de82612e9f565b602082019050919050565b60006123f6602f836127fd565b915061240182612ec8565b604082019050919050565b60006124196021836127fd565b915061242482612f17565b604082019050919050565b600061243c6031836127fd565b915061244782612f66565b604082019050919050565b61245b8161293e565b82525050565b600061246d82856121ce565b915061247982846121ce565b9150612484826123a3565b91508190509392505050565b60006020820190506124a5600083018461213e565b92915050565b60006080820190506124c0600083018761213e565b6124cd602083018661213e565b6124da6040830185612452565b81810360608301526124ec818461215c565b905095945050505050565b600060208201905061250c600083018461214d565b92915050565b6000602082019050818103600083015261252c8184612195565b905092915050565b6000602082019050818103600083015261254d816121ff565b9050919050565b6000602082019050818103600083015261256d81612222565b9050919050565b6000602082019050818103600083015261258d81612245565b9050919050565b600060208201905081810360008301526125ad81612268565b9050919050565b600060208201905081810360008301526125cd8161228b565b9050919050565b600060208201905081810360008301526125ed816122ae565b9050919050565b6000602082019050818103600083015261260d816122d1565b9050919050565b6000602082019050818103600083015261262d816122f4565b9050919050565b6000602082019050818103600083015261264d81612317565b9050919050565b6000602082019050818103600083015261266d8161233a565b9050919050565b6000602082019050818103600083015261268d8161235d565b9050919050565b600060208201905081810360008301526126ad81612380565b9050919050565b600060208201905081810360008301526126cd816123c6565b9050919050565b600060208201905081810360008301526126ed816123e9565b9050919050565b6000602082019050818103600083015261270d8161240c565b9050919050565b6000602082019050818103600083015261272d8161242f565b9050919050565b60006020820190506127496000830184612452565b92915050565b600061275961276a565b905061276582826129bc565b919050565b6000604051905090565b600067ffffffffffffffff82111561278f5761278e612af4565b5b61279882612b23565b9050602081019050919050565b600067ffffffffffffffff8211156127c0576127bf612af4565b5b6127c982612b23565b9050602081019050919050565b600081519050919050565b600081519050919050565b600082825260208201905092915050565b600082825260208201905092915050565b600081905092915050565b60006128248261293e565b915061282f8361293e565b9250827fffffffffffffffffffffffffffffffffffffffffffffffffffffffffffffffff0382111561286457612863612a67565b5b828201905092915050565b600061287a8261293e565b91506128858361293e565b92508261289557612894612a96565b5b828204905092915050565b60006128ab8261293e565b91506128b68361293e565b9250828210156128c9576128c8612a67565b5b828203905092915050565b60006128df8261291e565b9050919050565b60008115159050919050565b60007fffffffff0000000000000000000000000000000000000000000000000000000082169050919050565b600073ffffffffffffffffffffffffffffffffffffffff82169050919050565b6000819050919050565b82818337600083830152505050565b60005b8381101561297557808201518184015260208101905061295a565b83811115612984576000848401525b50505050565b600060028204905060018216806129a257607f821691505b602082108114156129b6576129b5612ac5565b5b50919050565b6129c582612b23565b810181811067ffffffffffffffff821117156129e4576129e3612af4565b5b80604052505050565b60006129f88261293e565b91507fffffffffffffffffffffffffffffffffffffffffffffffffffffffffffffffff821415612a2b57612a2a612a67565b5b600182019050919050565b6000612a418261293e565b9150612a4c8361293e565b925082612a5c57612a5b612a96565b5b828206905092915050565b7f4e487b7100000000000000000000000000000000000000000000000000000000600052601160045260246000fd5b7f4e487b7100000000000000000000000000000000000000000000000000000000600052601260045260246000fd5b7f4e487b7100000000000000000000000000000000000000000000000000000000600052602260045260246000fd5b7f4e487b7100000000000000000000000000000000000000000000000000000000600052604160045260246000fd5b6000601f19601f8301169050919050565b7f4552433732313a207472616e7366657220746f206e6f6e20455243373231526560008201527f63656976657220696d706c656d656e7465720000000000000000000000000000602082015250565b7f4f776e61626c653a206e6577206f776e657220697320746865207a65726f206160008201527f6464726573730000000000000000000000000000000000000000000000000000602082015250565b7f4552433732313a207472616e736665722066726f6d20696e636f72726563742060008201527f6f776e6572000000000000000000000000000000000000000000000000000000602082015250565b7f4552433732313a20746f6b656e20616c7265616479206d696e74656400000000600082015250565b7f4552433732313a207472616e7366657220746f20746865207a65726f2061646460008201527f7265737300000000000000000000000000000000000000000000000000000000602082015250565b7f4552433732313a20617070726f766520746f2063616c6c657200000000000000600082015250565b7f4552433732313a206f70657261746f7220717565727920666f72206e6f6e657860008201527f697374656e7420746f6b656e0000000000000000000000000000000000000000602082015250565b7f4552433732313a20617070726f76652063616c6c6572206973206e6f74206f7760008201527f6e6572206e6f7220617070726f76656420666f7220616c6c0000000000000000602082015250565b7f4552433732313a2062616c616e636520717565727920666f7220746865207a6560008201527f726f206164647265737300000000000000000000000000000000000000000000602082015250565b7f4552433732313a206f776e657220717565727920666f72206e6f6e657869737460008201527f656e7420746f6b656e0000000000000000000000000000000000000000000000602082015250565b7f4552433732313a206d696e7420746f20746865207a65726f2061646472657373600082015250565b7f4552433732313a20617070726f76656420717565727920666f72206e6f6e657860008201527f697374656e7420746f6b656e0000000000000000000000000000000000000000602082015250565b7f2e6a736f6e000000000000000000000000000000000000000000000000000000600082015250565b7f4f776e61626c653a2063616c6c6572206973206e6f7420746865206f776e6572600082015250565b7f4552433732314d657461646174613a2055524920717565727920666f72206e6f60008201527f6e6578697374656e7420746f6b656e0000000000000000000000000000000000602082015250565b7f4552433732313a20617070726f76616c20746f2063757272656e74206f776e6560008201527f7200000000000000000000000000000000000000000000000000000000000000602082015250565b7f4552433732313a207472616e736665722063616c6c6572206973206e6f74206f60008201527f776e6572206e6f7220617070726f766564000000000000000000000000000000602082015250565b612fbe816128d4565b8114612fc957600080fd5b50565b612fd5816128e6565b8114612fe057600080fd5b50565b612fec816128f2565b8114612ff757600080fd5b50565b6130038161293e565b811461300e57600080fd5b5056fea26469706673582212209686d3c7865113f49c7df6ae22e840cac80d42f01381f1ade09dab7b5c5053ac64736f6c63430008040033",
  "linkReferences": {},
  "deployedLinkReferences": {}
}