{
  "_format": "hh-sol-artifact-1",
  "contractName": "VirusNFT",
  "sourceName": "contracts/VirusNFT.sol",
  "abi": [
    {
      "inputs": [
        {
          "internalType": "string",
          "name": "_name",
          "type": "string"
        },
        {
          "internalType": "string",
          "name": "_symbol",
          "type": "string"
        },
        {
          "internalType": "uint256",
          "name": "_maxSupply",
          "type": "uint256"
        },
        {
          "internalType": "string",
          "name": "_initBaseURI",
          "type": "string"
        }
      ],
      "stateMutability": "nonpayable",
      "type": "constructor"
    },
    {
      "anonymous": false,
      "inputs": [
        {
          "indexed": true,
          "internalType": "address",
          "name": "owner",
          "type": "address"
        },
        {
          "indexed": true,
          "internalType": "address",
          "name": "approved",
          "type": "address"
        },
        {
          "indexed": true,
          "internalType": "uint256",
          "name": "tokenId",
          "type": "uint256"
        }
      ],
      "name": "Approval",
      "type": "event"
    },
    {
      "anonymous": false,
      "inputs": [
        {
          "indexed": true,
          "internalType": "address",
          "name": "owner",
          "type": "address"
        },
        {
          "indexed": true,
          "internalType": "address",
          "name": "operator",
          "type": "address"
        },
        {
          "indexed": false,
          "internalType": "bool",
          "name": "approved",
          "type": "bool"
        }
      ],
      "name": "ApprovalForAll",
      "type": "event"
    },
    {
      "anonymous": false,
      "inputs": [
        {
          "indexed": true,
          "internalType": "address",
          "name": "previousOwner",
          "type": "address"
        },
        {
          "indexed": true,
          "internalType": "address",
          "name": "newOwner",
          "type": "address"
        }
      ],
      "name": "OwnershipTransferred",
      "type": "event"
    },
    {
      "anonymous": false,
      "inputs": [
        {
          "indexed": true,
          "internalType": "address",
          "name": "from",
          "type": "address"
        },
        {
          "indexed": true,
          "internalType": "address",
          "name": "to",
          "type": "address"
        },
        {
          "indexed": true,
          "internalType": "uint256",
          "name": "tokenId",
          "type": "uint256"
        }
      ],
      "name": "Transfer",
      "type": "event"
    },
    {
      "inputs": [
        {
          "internalType": "address",
          "name": "to",
          "type": "address"
        },
        {
          "internalType": "uint256",
          "name": "tokenId",
          "type": "uint256"
        }
      ],
      "name": "approve",
      "outputs": [],
      "stateMutability": "nonpayable",
      "type": "function"
    },
    {
      "inputs": [
        {
          "internalType": "address",
          "name": "owner",
          "type": "address"
        }
      ],
      "name": "balanceOf",
      "outputs": [
        {
          "internalType": "uint256",
          "name": "",
          "type": "uint256"
        }
      ],
      "stateMutability": "view",
      "type": "function"
    },
    {
      "inputs": [
        {
          "internalType": "uint256",
          "name": "tokenId",
          "type": "uint256"
        }
      ],
      "name": "getApproved",
      "outputs": [
        {
          "internalType": "address",
          "name": "",
          "type": "address"
        }
      ],
      "stateMutability": "view",
      "type": "function"
    },
    {
      "inputs": [],
      "name": "getTotalSupply",
      "outputs": [
        {
          "internalType": "uint256",
          "name": "",
          "type": "uint256"
        }
      ],
      "stateMutability": "view",
      "type": "function"
    },
    {
      "inputs": [
        {
          "internalType": "address",
          "name": "owner",
          "type": "address"
        },
        {
          "internalType": "address",
          "name": "operator",
          "type": "address"
        }
      ],
      "name": "isApprovedForAll",
      "outputs": [
        {
          "internalType": "bool",
          "name": "",
          "type": "bool"
        }
      ],
      "stateMutability": "view",
      "type": "function"
    },
    {
      "inputs": [],
      "name": "mint",
      "outputs": [],
      "stateMutability": "nonpayable",
      "type": "function"
    },
    {
      "inputs": [
        {
          "internalType": "uint256",
          "name": "amount",
          "type": "uint256"
        }
      ],
      "name": "mint",
      "outputs": [],
      "stateMutability": "nonpayable",
      "type": "function"
    },
    {
      "inputs": [],
      "name": "name",
      "outputs": [
        {
          "internalType": "string",
          "name": "",
          "type": "string"
        }
      ],
      "stateMutability": "view",
      "type": "function"
    },
    {
      "inputs": [],
      "name": "owner",
      "outputs": [
        {
          "internalType": "address",
          "name": "",
          "type": "address"
        }
      ],
      "stateMutability": "view",
      "type": "function"
    },
    {
      "inputs": [
        {
          "internalType": "uint256",
          "name": "tokenId",
          "type": "uint256"
        }
      ],
      "name": "ownerOf",
      "outputs": [
        {
          "internalType": "address",
          "name": "",
          "type": "address"
        }
      ],
      "stateMutability": "view",
      "type": "function"
    },
    {
      "inputs": [],
      "name": "renounceOwnership",
      "outputs": [],
      "stateMutability": "nonpayable",
      "type": "function"
    },
    {
      "inputs": [
        {
          "internalType": "address",
          "name": "from",
          "type": "address"
        },
        {
          "internalType": "address",
          "name": "to",
          "type": "address"
        },
        {
          "internalType": "uint256",
          "name": "tokenId",
          "type": "uint256"
        }
      ],
      "name": "safeTransferFrom",
      "outputs": [],
      "stateMutability": "nonpayable",
      "type": "function"
    },
    {
      "inputs": [
        {
          "internalType": "address",
          "name": "from",
          "type": "address"
        },
        {
          "internalType": "address",
          "name": "to",
          "type": "address"
        },
        {
          "internalType": "uint256",
          "name": "tokenId",
          "type": "uint256"
        },
        {
          "internalType": "bytes",
          "name": "_data",
          "type": "bytes"
        }
      ],
      "name": "safeTransferFrom",
      "outputs": [],
      "stateMutability": "nonpayable",
      "type": "function"
    },
    {
      "inputs": [
        {
          "internalType": "address",
          "name": "operator",
          "type": "address"
        },
        {
          "internalType": "bool",
          "name": "approved",
          "type": "bool"
        }
      ],
      "name": "setApprovalForAll",
      "outputs": [],
      "stateMutability": "nonpayable",
      "type": "function"
    },
    {
      "inputs": [
        {
          "internalType": "string",
          "name": "_newBaseURI",
          "type": "string"
        }
      ],
      "name": "setBaseURI",
      "outputs": [],
      "stateMutability": "nonpayable",
      "type": "function"
    },
    {
      "inputs": [],
      "name": "setPaused",
      "outputs": [],
      "stateMutability": "nonpayable",
      "type": "function"
    },
    {
      "inputs": [],
      "name": "setUnpaused",
      "outputs": [],
      "stateMutability": "nonpayable",
      "type": "function"
    },
    {
      "inputs": [
        {
          "internalType": "bytes4",
          "name": "interfaceId",
          "type": "bytes4"
        }
      ],
      "name": "supportsInterface",
      "outputs": [
        {
          "internalType": "bool",
          "name": "",
          "type": "bool"
        }
      ],
      "stateMutability": "view",
      "type": "function"
    },
    {
      "inputs": [],
      "name": "symbol",
      "outputs": [
        {
          "internalType": "string",
          "name": "",
          "type": "string"
        }
      ],
      "stateMutability": "view",
      "type": "function"
    },
    {
      "inputs": [
        {
          "internalType": "uint256",
          "name": "tokenId",
          "type": "uint256"
        }
      ],
      "name": "tokenURI",
      "outputs": [
        {
          "internalType": "string",
          "name": "",
          "type": "string"
        }
      ],
      "stateMutability": "view",
      "type": "function"
    },
    {
      "inputs": [
        {
          "internalType": "address",
          "name": "from",
          "type": "address"
        },
        {
          "internalType": "address",
          "name": "to",
          "type": "address"
        },
        {
          "internalType": "uint256",
          "name": "tokenId",
          "type": "uint256"
        }
      ],
      "name": "transferFrom",
      "outputs": [],
      "stateMutability": "nonpayable",
      "type": "function"
    },
    {
      "inputs": [
        {
          "internalType": "address",
          "name": "newOwner",
          "type": "address"
        }
      ],
      "name": "transferOwnership",
      "outputs": [],
      "stateMutability": "nonpayable",
      "type": "function"
    }
  ],
  "bytecode": "0x60806040526000600a60006101000a81548160ff0219169083151502179055503480156200002c57600080fd5b50604051620037d0380380620037d08339818101604052810190620000529190620003a6565b838381600090805190602001906200006c9291906200026d565b508060019080519060200190620000859291906200026d565b505050620000a86200009c620000ca60201b60201c565b620000d260201b60201c565b620000b9816200019860201b60201c565b816009819055505050505062000674565b600033905090565b6000600660009054906101000a900473ffffffffffffffffffffffffffffffffffffffff16905081600660006101000a81548173ffffffffffffffffffffffffffffffffffffffff021916908373ffffffffffffffffffffffffffffffffffffffff1602179055508173ffffffffffffffffffffffffffffffffffffffff168173ffffffffffffffffffffffffffffffffffffffff167f8be0079c531659141344cd1fd0a4f28419497f9722a3daafe3b4186f6b6457e060405160405180910390a35050565b620001a8620000ca60201b60201c565b73ffffffffffffffffffffffffffffffffffffffff16620001ce6200024360201b60201c565b73ffffffffffffffffffffffffffffffffffffffff161462000227576040517f08c379a00000000000000000000000000000000000000000000000000000000081526004016200021e9062000484565b60405180910390fd5b80600890805190602001906200023f9291906200026d565b5050565b6000600660009054906101000a900473ffffffffffffffffffffffffffffffffffffffff16905090565b8280546200027b9062000556565b90600052602060002090601f0160209004810192826200029f5760008555620002eb565b82601f10620002ba57805160ff1916838001178555620002eb565b82800160010185558215620002eb579182015b82811115620002ea578251825591602001919060010190620002cd565b5b509050620002fa9190620002fe565b5090565b5b8082111562000319576000816000905550600101620002ff565b5090565b6000620003346200032e84620004cf565b620004a6565b9050828152602081018484840111156200034d57600080fd5b6200035a84828562000520565b509392505050565b600082601f8301126200037457600080fd5b8151620003868482602086016200031d565b91505092915050565b600081519050620003a0816200065a565b92915050565b60008060008060808587031215620003bd57600080fd5b600085015167ffffffffffffffff811115620003d857600080fd5b620003e68782880162000362565b945050602085015167ffffffffffffffff8111156200040457600080fd5b620004128782880162000362565b935050604062000425878288016200038f565b925050606085015167ffffffffffffffff8111156200044357600080fd5b620004518782880162000362565b91505092959194509250565b60006200046c60208362000505565b9150620004798262000631565b602082019050919050565b600060208201905081810360008301526200049f816200045d565b9050919050565b6000620004b2620004c5565b9050620004c082826200058c565b919050565b6000604051905090565b600067ffffffffffffffff821115620004ed57620004ec620005f1565b5b620004f88262000620565b9050602081019050919050565b600082825260208201905092915050565b6000819050919050565b60005b838110156200054057808201518184015260208101905062000523565b8381111562000550576000848401525b50505050565b600060028204905060018216806200056f57607f821691505b60208210811415620005865762000585620005c2565b5b50919050565b620005978262000620565b810181811067ffffffffffffffff82111715620005b957620005b8620005f1565b5b80604052505050565b7f4e487b7100000000000000000000000000000000000000000000000000000000600052602260045260246000fd5b7f4e487b7100000000000000000000000000000000000000000000000000000000600052604160045260246000fd5b6000601f19601f8301169050919050565b7f4f776e61626c653a2063616c6c6572206973206e6f7420746865206f776e6572600082015250565b620006658162000516565b81146200067157600080fd5b50565b61314c80620006846000396000f3fe608060405234801561001057600080fd5b50600436106101425760003560e01c806370a08231116100b8578063a22cb4651161007c578063a22cb46514610315578063b88d4fde14610331578063c4e41b221461034d578063c87b56dd1461036b578063e985e9c51461039b578063f2fde38b146103cb57610142565b806370a0823114610283578063715018a6146102b35780638da5cb5b146102bd57806395d89b41146102db578063a0712d68146102f957610142565b806323b872dd1161010a57806323b872dd146101eb57806337a66d85146102075780633c89edce1461021157806342842e0e1461021b57806355f804b3146102375780636352211e1461025357610142565b806301ffc9a71461014757806306fdde0314610177578063081812fc14610195578063095ea7b3146101c55780631249c58b146101e1575b600080fd5b610161600480360381019061015c9190612187565b6103e7565b60405161016e91906125fc565b60405180910390f35b61017f6104c9565b60405161018c9190612617565b60405180910390f35b6101af60048036038101906101aa919061221a565b61055b565b6040516101bc9190612595565b60405180910390f35b6101df60048036038101906101da919061214b565b6105e0565b005b6101e96106f8565b005b61020560048036038101906102009190612045565b61077e565b005b61020f6107de565b005b610219610877565b005b61023560048036038101906102309190612045565b610910565b005b610251600480360381019061024c91906121d9565b610930565b005b61026d6004803603810190610268919061221a565b6109c6565b60405161027a9190612595565b60405180910390f35b61029d60048036038101906102989190611fe0565b610a78565b6040516102aa9190612839565b60405180910390f35b6102bb610b30565b005b6102c5610bb8565b6040516102d29190612595565b60405180910390f35b6102e3610be2565b6040516102f09190612617565b60405180910390f35b610313600480360381019061030e919061221a565b610c74565b005b61032f600480360381019061032a919061210f565b610d52565b005b61034b60048036038101906103469190612094565b610d68565b005b610355610dca565b6040516103629190612839565b60405180910390f35b6103856004803603810190610380919061221a565b610ddb565b6040516103929190612617565b60405180910390f35b6103b560048036038101906103b09190612009565b610e83565b6040516103c291906125fc565b60405180910390f35b6103e560048036038101906103e09190611fe0565b610f17565b005b60007f80ac58cd000000000000000000000000000000000000000000000000000000007bffffffffffffffffffffffffffffffffffffffffffffffffffffffff1916827bffffffffffffffffffffffffffffffffffffffffffffffffffffffff191614806104b257507f5b5e139f000000000000000000000000000000000000000000000000000000007bffffffffffffffffffffffffffffffffffffffffffffffffffffffff1916827bffffffffffffffffffffffffffffffffffffffffffffffffffffffff1916145b806104c257506104c18261100f565b5b9050919050565b6060600080546104d890612a8f565b80601f016020809104026020016040519081016040528092919081815260200182805461050490612a8f565b80156105515780601f1061052657610100808354040283529160200191610551565b820191906000526020600020905b81548152906001019060200180831161053457829003601f168201915b5050505050905090565b600061056682611079565b6105a5576040517f08c379a000000000000000000000000000000000000000000000000000000000815260040161059c90612799565b60405180910390fd5b6004600083815260200190815260200160002060009054906101000a900473ffffffffffffffffffffffffffffffffffffffff169050919050565b60006105eb826109c6565b90508073ffffffffffffffffffffffffffffffffffffffff168373ffffffffffffffffffffffffffffffffffffffff16141561065c576040517f08c379a0000000000000000000000000000000000000000000000000000000008152600401610653906127f9565b60405180910390fd5b8073ffffffffffffffffffffffffffffffffffffffff1661067b6110e5565b73ffffffffffffffffffffffffffffffffffffffff1614806106aa57506106a9816106a46110e5565b610e83565b5b6106e9576040517f08c379a00000000000000000000000000000000000000000000000000000000081526004016106e090612719565b60405180910390fd5b6106f383836110ed565b505050565b610700610bb8565b73ffffffffffffffffffffffffffffffffffffffff163373ffffffffffffffffffffffffffffffffffffffff161461074757600161073c6111a6565b1061074657600080fd5b5b61075160076111b6565b61075b60076111cc565b600954101561076957600080fd5b61077c3361077760076111cc565b6111da565b565b61078f6107896110e5565b826111f8565b6107ce576040517f08c379a00000000000000000000000000000000000000000000000000000000081526004016107c590612819565b60405180910390fd5b6107d98383836112d6565b505050565b6107e66110e5565b73ffffffffffffffffffffffffffffffffffffffff16610804610bb8565b73ffffffffffffffffffffffffffffffffffffffff161461085a576040517f08c379a0000000000000000000000000000000000000000000000000000000008152600401610851906127b9565b60405180910390fd5b6001600a60006101000a81548160ff021916908315150217905550565b61087f6110e5565b73ffffffffffffffffffffffffffffffffffffffff1661089d610bb8565b73ffffffffffffffffffffffffffffffffffffffff16146108f3576040517f08c379a00000000000000000000000000000000000000000000000000000000081526004016108ea906127b9565b60405180910390fd5b6000600a60006101000a81548160ff021916908315150217905550565b61092b83838360405180602001604052806000815250610d68565b505050565b6109386110e5565b73ffffffffffffffffffffffffffffffffffffffff16610956610bb8565b73ffffffffffffffffffffffffffffffffffffffff16146109ac576040517f08c379a00000000000000000000000000000000000000000000000000000000081526004016109a3906127b9565b60405180910390fd5b80600890805190602001906109c2929190611e04565b5050565b6000806002600084815260200190815260200160002060009054906101000a900473ffffffffffffffffffffffffffffffffffffffff169050600073ffffffffffffffffffffffffffffffffffffffff168173ffffffffffffffffffffffffffffffffffffffff161415610a6f576040517f08c379a0000000000000000000000000000000000000000000000000000000008152600401610a6690612759565b60405180910390fd5b80915050919050565b60008073ffffffffffffffffffffffffffffffffffffffff168273ffffffffffffffffffffffffffffffffffffffff161415610ae9576040517f08c379a0000000000000000000000000000000000000000000000000000000008152600401610ae090612739565b60405180910390fd5b600360008373ffffffffffffffffffffffffffffffffffffffff1673ffffffffffffffffffffffffffffffffffffffff168152602001908152602001600020549050919050565b610b386110e5565b73ffffffffffffffffffffffffffffffffffffffff16610b56610bb8565b73ffffffffffffffffffffffffffffffffffffffff1614610bac576040517f08c379a0000000000000000000000000000000000000000000000000000000008152600401610ba3906127b9565b60405180910390fd5b610bb6600061153d565b565b6000600660009054906101000a900473ffffffffffffffffffffffffffffffffffffffff16905090565b606060018054610bf190612a8f565b80601f0160208091040260200160405190810160405280929190818152602001828054610c1d90612a8f565b8015610c6a5780601f10610c3f57610100808354040283529160200191610c6a565b820191906000526020600020905b815481529060010190602001808311610c4d57829003601f168201915b5050505050905090565b610c7c6110e5565b73ffffffffffffffffffffffffffffffffffffffff16610c9a610bb8565b73ffffffffffffffffffffffffffffffffffffffff1614610cf0576040517f08c379a0000000000000000000000000000000000000000000000000000000008152600401610ce7906127b9565b60405180910390fd5b80610cfb60076111cc565b610d05919061291e565b6009541015610d1357600080fd5b60005b81811015610d4e57610d2860076111b6565b610d3b33610d3660076111cc565b6111da565b8080610d4690612af2565b915050610d16565b5050565b610d64610d5d6110e5565b8383611603565b5050565b610d79610d736110e5565b836111f8565b610db8576040517f08c379a0000000000000000000000000000000000000000000000000000000008152600401610daf90612819565b60405180910390fd5b610dc484848484611770565b50505050565b6000610dd660076111cc565b905090565b6060610de682611079565b610e25576040517f08c379a0000000000000000000000000000000000000000000000000000000008152600401610e1c906127d9565b60405180910390fd5b6000610e2f6117cc565b5111610e4a5760405180602001604052806000815250610e7c565b610e526117cc565b610e5b8361185e565b604051602001610e6c929190612566565b6040516020818303038152906040525b9050919050565b6000600560008473ffffffffffffffffffffffffffffffffffffffff1673ffffffffffffffffffffffffffffffffffffffff16815260200190815260200160002060008373ffffffffffffffffffffffffffffffffffffffff1673ffffffffffffffffffffffffffffffffffffffff16815260200190815260200160002060009054906101000a900460ff16905092915050565b610f1f6110e5565b73ffffffffffffffffffffffffffffffffffffffff16610f3d610bb8565b73ffffffffffffffffffffffffffffffffffffffff1614610f93576040517f08c379a0000000000000000000000000000000000000000000000000000000008152600401610f8a906127b9565b60405180910390fd5b600073ffffffffffffffffffffffffffffffffffffffff168173ffffffffffffffffffffffffffffffffffffffff161415611003576040517f08c379a0000000000000000000000000000000000000000000000000000000008152600401610ffa90612659565b60405180910390fd5b61100c8161153d565b50565b60007f01ffc9a7000000000000000000000000000000000000000000000000000000007bffffffffffffffffffffffffffffffffffffffffffffffffffffffff1916827bffffffffffffffffffffffffffffffffffffffffffffffffffffffff1916149050919050565b60008073ffffffffffffffffffffffffffffffffffffffff166002600084815260200190815260200160002060009054906101000a900473ffffffffffffffffffffffffffffffffffffffff1673ffffffffffffffffffffffffffffffffffffffff1614159050919050565b600033905090565b816004600083815260200190815260200160002060006101000a81548173ffffffffffffffffffffffffffffffffffffffff021916908373ffffffffffffffffffffffffffffffffffffffff160217905550808273ffffffffffffffffffffffffffffffffffffffff16611160836109c6565b73ffffffffffffffffffffffffffffffffffffffff167f8c5be1e5ebec7d5bd14f71427d1e84f3dd0314c0f7b2291e5b200ac8c7c3b92560405160405180910390a45050565b60006111b133610a78565b905090565b6001816000016000828254019250508190555050565b600081600001549050919050565b6111f4828260405180602001604052806000815250611a0b565b5050565b600061120382611079565b611242576040517f08c379a0000000000000000000000000000000000000000000000000000000008152600401611239906126f9565b60405180910390fd5b600061124d836109c6565b90508073ffffffffffffffffffffffffffffffffffffffff168473ffffffffffffffffffffffffffffffffffffffff1614806112bc57508373ffffffffffffffffffffffffffffffffffffffff166112a48461055b565b73ffffffffffffffffffffffffffffffffffffffff16145b806112cd57506112cc8185610e83565b5b91505092915050565b8273ffffffffffffffffffffffffffffffffffffffff166112f6826109c6565b73ffffffffffffffffffffffffffffffffffffffff161461134c576040517f08c379a000000000000000000000000000000000000000000000000000000000815260040161134390612679565b60405180910390fd5b600073ffffffffffffffffffffffffffffffffffffffff168273ffffffffffffffffffffffffffffffffffffffff1614156113bc576040517f08c379a00000000000000000000000000000000000000000000000000000000081526004016113b3906126b9565b60405180910390fd5b6113c7838383611a66565b6113d26000826110ed565b6001600360008573ffffffffffffffffffffffffffffffffffffffff1673ffffffffffffffffffffffffffffffffffffffff168152602001908152602001600020600082825461142291906129a5565b925050819055506001600360008473ffffffffffffffffffffffffffffffffffffffff1673ffffffffffffffffffffffffffffffffffffffff1681526020019081526020016000206000828254611479919061291e565b92505081905550816002600083815260200190815260200160002060006101000a81548173ffffffffffffffffffffffffffffffffffffffff021916908373ffffffffffffffffffffffffffffffffffffffff160217905550808273ffffffffffffffffffffffffffffffffffffffff168473ffffffffffffffffffffffffffffffffffffffff167fddf252ad1be2c89b69c2b068fc378daa952ba7f163c4a11628f55a4df523b3ef60405160405180910390a4611538838383611a6b565b505050565b6000600660009054906101000a900473ffffffffffffffffffffffffffffffffffffffff16905081600660006101000a81548173ffffffffffffffffffffffffffffffffffffffff021916908373ffffffffffffffffffffffffffffffffffffffff1602179055508173ffffffffffffffffffffffffffffffffffffffff168173ffffffffffffffffffffffffffffffffffffffff167f8be0079c531659141344cd1fd0a4f28419497f9722a3daafe3b4186f6b6457e060405160405180910390a35050565b8173ffffffffffffffffffffffffffffffffffffffff168373ffffffffffffffffffffffffffffffffffffffff161415611672576040517f08c379a0000000000000000000000000000000000000000000000000000000008152600401611669906126d9565b60405180910390fd5b80600560008573ffffffffffffffffffffffffffffffffffffffff1673ffffffffffffffffffffffffffffffffffffffff16815260200190815260200160002060008473ffffffffffffffffffffffffffffffffffffffff1673ffffffffffffffffffffffffffffffffffffffff16815260200190815260200160002060006101000a81548160ff0219169083151502179055508173ffffffffffffffffffffffffffffffffffffffff168373ffffffffffffffffffffffffffffffffffffffff167f17307eab39ab6107e8899845ad3d59bd9653f200f220920489ca2b5937696c318360405161176391906125fc565b60405180910390a3505050565b61177b8484846112d6565b61178784848484611a70565b6117c6576040517f08c379a00000000000000000000000000000000000000000000000000000000081526004016117bd90612639565b60405180910390fd5b50505050565b6060600880546117db90612a8f565b80601f016020809104026020016040519081016040528092919081815260200182805461180790612a8f565b80156118545780601f1061182957610100808354040283529160200191611854565b820191906000526020600020905b81548152906001019060200180831161183757829003601f168201915b5050505050905090565b606060008214156118a6576040518060400160405280600181526020017f30000000000000000000000000000000000000000000000000000000000000008152509050611a06565b600082905060005b600082146118d85780806118c190612af2565b915050600a826118d19190612974565b91506118ae565b60008167ffffffffffffffff81111561191a577f4e487b7100000000000000000000000000000000000000000000000000000000600052604160045260246000fd5b6040519080825280601f01601f19166020018201604052801561194c5781602001600182028036833780820191505090505b5090505b600085146119ff5760018261196591906129a5565b9150600a856119749190612b3b565b6030611980919061291e565b60f81b8183815181106119bc577f4e487b7100000000000000000000000000000000000000000000000000000000600052603260045260246000fd5b60200101907effffffffffffffffffffffffffffffffffffffffffffffffffffffffffffff1916908160001a905350600a856119f89190612974565b9450611950565b8093505050505b919050565b611a158383611c07565b611a226000848484611a70565b611a61576040517f08c379a0000000000000000000000000000000000000000000000000000000008152600401611a5890612639565b60405180910390fd5b505050565b505050565b505050565b6000611a918473ffffffffffffffffffffffffffffffffffffffff16611de1565b15611bfa578373ffffffffffffffffffffffffffffffffffffffff1663150b7a02611aba6110e5565b8786866040518563ffffffff1660e01b8152600401611adc94939291906125b0565b602060405180830381600087803b158015611af657600080fd5b505af1925050508015611b2757506040513d601f19601f82011682018060405250810190611b2491906121b0565b60015b611baa573d8060008114611b57576040519150601f19603f3d011682016040523d82523d6000602084013e611b5c565b606091505b50600081511415611ba2576040517f08c379a0000000000000000000000000000000000000000000000000000000008152600401611b9990612639565b60405180910390fd5b805181602001fd5b63150b7a0260e01b7bffffffffffffffffffffffffffffffffffffffffffffffffffffffff1916817bffffffffffffffffffffffffffffffffffffffffffffffffffffffff191614915050611bff565b600190505b949350505050565b600073ffffffffffffffffffffffffffffffffffffffff168273ffffffffffffffffffffffffffffffffffffffff161415611c77576040517f08c379a0000000000000000000000000000000000000000000000000000000008152600401611c6e90612779565b60405180910390fd5b611c8081611079565b15611cc0576040517f08c379a0000000000000000000000000000000000000000000000000000000008152600401611cb790612699565b60405180910390fd5b611ccc60008383611a66565b6001600360008473ffffffffffffffffffffffffffffffffffffffff1673ffffffffffffffffffffffffffffffffffffffff1681526020019081526020016000206000828254611d1c919061291e565b92505081905550816002600083815260200190815260200160002060006101000a81548173ffffffffffffffffffffffffffffffffffffffff021916908373ffffffffffffffffffffffffffffffffffffffff160217905550808273ffffffffffffffffffffffffffffffffffffffff16600073ffffffffffffffffffffffffffffffffffffffff167fddf252ad1be2c89b69c2b068fc378daa952ba7f163c4a11628f55a4df523b3ef60405160405180910390a4611ddd60008383611a6b565b5050565b6000808273ffffffffffffffffffffffffffffffffffffffff163b119050919050565b828054611e1090612a8f565b90600052602060002090601f016020900481019282611e325760008555611e79565b82601f10611e4b57805160ff1916838001178555611e79565b82800160010185558215611e79579182015b82811115611e78578251825591602001919060010190611e5d565b5b509050611e869190611e8a565b5090565b5b80821115611ea3576000816000905550600101611e8b565b5090565b6000611eba611eb584612879565b612854565b905082815260208101848484011115611ed257600080fd5b611edd848285612a4d565b509392505050565b6000611ef8611ef3846128aa565b612854565b905082815260208101848484011115611f1057600080fd5b611f1b848285612a4d565b509392505050565b600081359050611f32816130ba565b92915050565b600081359050611f47816130d1565b92915050565b600081359050611f5c816130e8565b92915050565b600081519050611f71816130e8565b92915050565b600082601f830112611f8857600080fd5b8135611f98848260208601611ea7565b91505092915050565b600082601f830112611fb257600080fd5b8135611fc2848260208601611ee5565b91505092915050565b600081359050611fda816130ff565b92915050565b600060208284031215611ff257600080fd5b600061200084828501611f23565b91505092915050565b6000806040838503121561201c57600080fd5b600061202a85828601611f23565b925050602061203b85828601611f23565b9150509250929050565b60008060006060848603121561205a57600080fd5b600061206886828701611f23565b935050602061207986828701611f23565b925050604061208a86828701611fcb565b9150509250925092565b600080600080608085870312156120aa57600080fd5b60006120b887828801611f23565b94505060206120c987828801611f23565b93505060406120da87828801611fcb565b925050606085013567ffffffffffffffff8111156120f757600080fd5b61210387828801611f77565b91505092959194509250565b6000806040838503121561212257600080fd5b600061213085828601611f23565b925050602061214185828601611f38565b9150509250929050565b6000806040838503121561215e57600080fd5b600061216c85828601611f23565b925050602061217d85828601611fcb565b9150509250929050565b60006020828403121561219957600080fd5b60006121a784828501611f4d565b91505092915050565b6000602082840312156121c257600080fd5b60006121d084828501611f62565b91505092915050565b6000602082840312156121eb57600080fd5b600082013567ffffffffffffffff81111561220557600080fd5b61221184828501611fa1565b91505092915050565b60006020828403121561222c57600080fd5b600061223a84828501611fcb565b91505092915050565b61224c816129d9565b82525050565b61225b816129eb565b82525050565b600061226c826128db565b61227681856128f1565b9350612286818560208601612a5c565b61228f81612c28565b840191505092915050565b60006122a5826128e6565b6122af8185612902565b93506122bf818560208601612a5c565b6122c881612c28565b840191505092915050565b60006122de826128e6565b6122e88185612913565b93506122f8818560208601612a5c565b80840191505092915050565b6000612311603283612902565b915061231c82612c39565b604082019050919050565b6000612334602683612902565b915061233f82612c88565b604082019050919050565b6000612357602583612902565b915061236282612cd7565b604082019050919050565b600061237a601c83612902565b915061238582612d26565b602082019050919050565b600061239d602483612902565b91506123a882612d4f565b604082019050919050565b60006123c0601983612902565b91506123cb82612d9e565b602082019050919050565b60006123e3602c83612902565b91506123ee82612dc7565b604082019050919050565b6000612406603883612902565b915061241182612e16565b604082019050919050565b6000612429602a83612902565b915061243482612e65565b604082019050919050565b600061244c602983612902565b915061245782612eb4565b604082019050919050565b600061246f602083612902565b915061247a82612f03565b602082019050919050565b6000612492602c83612902565b915061249d82612f2c565b604082019050919050565b60006124b5600583612913565b91506124c082612f7b565b600582019050919050565b60006124d8602083612902565b91506124e382612fa4565b602082019050919050565b60006124fb602f83612902565b915061250682612fcd565b604082019050919050565b600061251e602183612902565b91506125298261301c565b604082019050919050565b6000612541603183612902565b915061254c8261306b565b604082019050919050565b61256081612a43565b82525050565b600061257282856122d3565b915061257e82846122d3565b9150612589826124a8565b91508190509392505050565b60006020820190506125aa6000830184612243565b92915050565b60006080820190506125c56000830187612243565b6125d26020830186612243565b6125df6040830185612557565b81810360608301526125f18184612261565b905095945050505050565b60006020820190506126116000830184612252565b92915050565b60006020820190508181036000830152612631818461229a565b905092915050565b6000602082019050818103600083015261265281612304565b9050919050565b6000602082019050818103600083015261267281612327565b9050919050565b600060208201905081810360008301526126928161234a565b9050919050565b600060208201905081810360008301526126b28161236d565b9050919050565b600060208201905081810360008301526126d281612390565b9050919050565b600060208201905081810360008301526126f2816123b3565b9050919050565b60006020820190508181036000830152612712816123d6565b9050919050565b60006020820190508181036000830152612732816123f9565b9050919050565b600060208201905081810360008301526127528161241c565b9050919050565b600060208201905081810360008301526127728161243f565b9050919050565b6000602082019050818103600083015261279281612462565b9050919050565b600060208201905081810360008301526127b281612485565b9050919050565b600060208201905081810360008301526127d2816124cb565b9050919050565b600060208201905081810360008301526127f2816124ee565b9050919050565b6000602082019050818103600083015261281281612511565b9050919050565b6000602082019050818103600083015261283281612534565b9050919050565b600060208201905061284e6000830184612557565b92915050565b600061285e61286f565b905061286a8282612ac1565b919050565b6000604051905090565b600067ffffffffffffffff82111561289457612893612bf9565b5b61289d82612c28565b9050602081019050919050565b600067ffffffffffffffff8211156128c5576128c4612bf9565b5b6128ce82612c28565b9050602081019050919050565b600081519050919050565b600081519050919050565b600082825260208201905092915050565b600082825260208201905092915050565b600081905092915050565b600061292982612a43565b915061293483612a43565b9250827fffffffffffffffffffffffffffffffffffffffffffffffffffffffffffffffff0382111561296957612968612b6c565b5b828201905092915050565b600061297f82612a43565b915061298a83612a43565b92508261299a57612999612b9b565b5b828204905092915050565b60006129b082612a43565b91506129bb83612a43565b9250828210156129ce576129cd612b6c565b5b828203905092915050565b60006129e482612a23565b9050919050565b60008115159050919050565b60007fffffffff0000000000000000000000000000000000000000000000000000000082169050919050565b600073ffffffffffffffffffffffffffffffffffffffff82169050919050565b6000819050919050565b82818337600083830152505050565b60005b83811015612a7a578082015181840152602081019050612a5f565b83811115612a89576000848401525b50505050565b60006002820490506001821680612aa757607f821691505b60208210811415612abb57612aba612bca565b5b50919050565b612aca82612c28565b810181811067ffffffffffffffff82111715612ae957612ae8612bf9565b5b80604052505050565b6000612afd82612a43565b91507fffffffffffffffffffffffffffffffffffffffffffffffffffffffffffffffff821415612b3057612b2f612b6c565b5b600182019050919050565b6000612b4682612a43565b9150612b5183612a43565b925082612b6157612b60612b9b565b5b828206905092915050565b7f4e487b7100000000000000000000000000000000000000000000000000000000600052601160045260246000fd5b7f4e487b7100000000000000000000000000000000000000000000000000000000600052601260045260246000fd5b7f4e487b7100000000000000000000000000000000000000000000000000000000600052602260045260246000fd5b7f4e487b7100000000000000000000000000000000000000000000000000000000600052604160045260246000fd5b6000601f19601f8301169050919050565b7f4552433732313a207472616e7366657220746f206e6f6e20455243373231526560008201527f63656976657220696d706c656d656e7465720000000000000000000000000000602082015250565b7f4f776e61626c653a206e6577206f776e657220697320746865207a65726f206160008201527f6464726573730000000000000000000000000000000000000000000000000000602082015250565b7f4552433732313a207472616e736665722066726f6d20696e636f72726563742060008201527f6f776e6572000000000000000000000000000000000000000000000000000000602082015250565b7f4552433732313a20746f6b656e20616c7265616479206d696e74656400000000600082015250565b7f4552433732313a207472616e7366657220746f20746865207a65726f2061646460008201527f7265737300000000000000000000000000000000000000000000000000000000602082015250565b7f4552433732313a20617070726f766520746f2063616c6c657200000000000000600082015250565b7f4552433732313a206f70657261746f7220717565727920666f72206e6f6e657860008201527f697374656e7420746f6b656e0000000000000000000000000000000000000000602082015250565b7f4552433732313a20617070726f76652063616c6c6572206973206e6f74206f7760008201527f6e6572206e6f7220617070726f76656420666f7220616c6c0000000000000000602082015250565b7f4552433732313a2062616c616e636520717565727920666f7220746865207a6560008201527f726f206164647265737300000000000000000000000000000000000000000000602082015250565b7f4552433732313a206f776e657220717565727920666f72206e6f6e657869737460008201527f656e7420746f6b656e0000000000000000000000000000000000000000000000602082015250565b7f4552433732313a206d696e7420746f20746865207a65726f2061646472657373600082015250565b7f4552433732313a20617070726f76656420717565727920666f72206e6f6e657860008201527f697374656e7420746f6b656e0000000000000000000000000000000000000000602082015250565b7f2e6a736f6e000000000000000000000000000000000000000000000000000000600082015250565b7f4f776e61626c653a2063616c6c6572206973206e6f7420746865206f776e6572600082015250565b7f4552433732314d657461646174613a2055524920717565727920666f72206e6f60008201527f6e6578697374656e7420746f6b656e0000000000000000000000000000000000602082015250565b7f4552433732313a20617070726f76616c20746f2063757272656e74206f776e6560008201527f7200000000000000000000000000000000000000000000000000000000000000602082015250565b7f4552433732313a207472616e736665722063616c6c6572206973206e6f74206f60008201527f776e6572206e6f7220617070726f766564000000000000000000000000000000602082015250565b6130c3816129d9565b81146130ce57600080fd5b50565b6130da816129eb565b81146130e557600080fd5b50565b6130f1816129f7565b81146130fc57600080fd5b50565b61310881612a43565b811461311357600080fd5b5056fea26469706673582212201d3a1f8369ee9bea5f67d58703b643682884a122447edb06e0ec172e4e8ac7eb64736f6c63430008040033",
  "linkReferences": {},
  "deployedLinkReferences": {}
}